:020000040800F2
:10100000300E0020D5110008DD1100087916000807
:10101000A516000875150008B519000800000000A5
:10102000000000000000000000000000A5170008FC
:101030004D16000800000000A9160008A9170008B6
:10104000EF110008EF110008EF110008EF11000880
:10105000EF110008EF110008EF1100085116000809
:101060000000000079150008EF110008A515000820
:10107000CD130008EF110008EF1100080000000078
:101080008D190008EF110008000000005119000838
:10109000651900087D190008EF110008EF1100081C
:1010A000EF110008EF110008EF110008B119000856
:1010B000EF11000800000000000000000000000028
:1010C000EF11000800000000EF11000800F002F826
:1010D00000F070F814A696E8000CB244B344DA4568
:1010E00001D100F067F8BAE80F000FA696E83000CB
:1010F000A5EB040504EB0607AAEB0704A7F101071B
:101100004FEA15154FEA3414A4F10104AC4201D39F
:1011100000F050F813F0010F18BFFB1A43F0010361
:1011200000F001F8DBE71847845C0000A45C0000D5
:101130000A444FF0000C10F8013B13F0070408BFFD
:1011400010F8014B1D1108BF10F8015B641E05D09B
:1011500010F8016B641E01F8016BF9D113F0080F50
:101160001EBF10F8014BAD1C0C1B09D16D1E58BFE2
:1011700001F801CBFAD505E014F8016B01F8016B19
:101180006D1EF9D59142D6D370470000704700001C
:101190000023002400250026103A28BF78C1FBD880
:1011A000520728BF30C148BF0B6070471FB51FBD35
:1011B00010B510BD00F0CFF81146FFF7F7FF02F0B1
:1011C00027FF00F0EDF803B4FFF7F2FF03BC00F0D7
:1011D000F5F800000948804709480047FEE7FEE7A8
:1011E000FEE7FEE7FEE7FEE7FEE7FEE7FEE7FEE7D7
:1011F00004480549054A064B70470000AD17000832
:10120000CD10000830080020300E0020300A0020E9
:10121000300A0020032A40F2308010F0030C00F066
:10122000158011F8013BBCF1020F624498BF11F820
:1012300001CB00F8013B38BF11F8013BA2F10402D9
:1012400098BF00F801CB38BF00F8013B11F0030351
:1012500000F04F80083AC0F0088051F8043B083A8B
:1012600051F804CBA0E80810F5E7121D5CBF51F857
:10127000043B40F8043BAFF30080D20724BF11F8D1
:10128000013B11F801CB48BF11F8012B24BF00F836
:10129000013B00F801CB48BF00F8012B70474FF02D
:1012A000000200B5134694469646203922BFA0E8B6
:1012B0000C50A0E80C50B1F12001BFF4F7AF0907C2
:1012C00028BFA0E80C5048BF0CC05DF804EB8900B3
:1012D00028BF40F8042B08BF704748BF20F8022BF6
:1012E00011F0804F18BF00F8012B7047704770470E
:1012F000704710B5203AC0F00B80B1E81850A0E854
:101300001850B1E81850A0E81850203ABFF4F5AFD3
:101310005FEA027C24BFB1E81850A0E8185044BF2F
:1013200018C918C0BDE810405FEA827C24BF51F89C
:10133000043B40F8043B08BF7047D20728BF31F890
:10134000023B48BF11F8012B28BF20F8023B48BFE1
:1013500000F8012B7047754600F02CF8AE460500EA
:101360006946534620F00700854618B020B5FFF7C0
:101370003FFFBDE820404FF000064FF000074FF060
:1013800000084FF0000BAC46ACE8C009ACE8C0095F
:10139000ACE8C009ACE8C00921F007018D467047F0
:1013A00010B50446AFF300802046BDE81040FFF7BB
:1013B0000ABF000000487047B00300200149182010
:1013C000ABBEFEE7260002007047000041F2240099
:1013D00040F20C51C4F20000C2F20001006809683A
:1013E000B0EB510F08D940F21440C4F201004FF4A1
:1013F0000011016002F050BC80B502F035FA40F2F5
:101400000D01C2F200010978884218BF80BD40F288
:101410001440C4F201004FF40011016080BD0000CF
:1014200040F23050C2F20000C18840F2F242C2F2F3
:1014300000021180018840F2F642C2F200021180DF
:10144000408840F2DA41C2F2000108807047000093
:10145000F0B587B042F200444FF0904003210022E3
:101460000823C4F20104002702F00CFB4FF0904067
:1014700003210022402302F005FB4FF4A0100121BC
:1014800001F004FC0825C4F20205284601F03AFFE9
:1014900002AE304601F0E8FE0420C0F20010CDF8A4
:1014A000120040F23050C2F20000039004F14C00F0
:1014B000029040F20110C0F20120CDF8160028463B
:1014C0003146ADF8107001F0DFFE2846012101F031
:1014D000C5FE0920C0F21800012101F0D7FB07204A
:1014E00001F0B2FA01AD284600F09EFA40F2011078
:1014F000C0F2004001902046294600F073FA2046D1
:1015000006210122032300F0B7FA2046032102221C
:10151000032300F0B1FA204611210322032300F037
:10152000ABFA204610210422072300F0A5FA01207F
:1015300000F000FC20460721012200F0D3FB2046EA
:10154000012100F089FA2046012100F08FFA20469F
:1015500000F06EFA204600F071FA0028FAD1204619
:1015600000F070FA204600F073FA0028FAD107B0B4
:10157000F0BD0000FEE70000B0B5022001F07CFEE7
:10158000012818BFB0BD0424C4F20204012525605F
:10159000FFF746FF082001F06FFE012808BF256015
:1015A000B0BD000010B540F2AC40C2F200000078BF
:1015B0000424C4F2020488B14FF480502060206CEF
:1015C00020F00100206405F0FFF940F21040C4F261
:1015D00001004FF40041016010BD00BF4FF4804096
:1015E00001F04AFE012810D140F2AD40C2F20000E5
:1015F000007850B140F22040C4F20000016841F090
:10160000020101604FF4804020604FF4005001F06F
:1016100033FE01280FD14FF480502060206C20F061
:101620000100206405F0D0F940F21040C4F201003E
:101630004FF4004101604FF4004001F01DFE01280D
:1016400004BF4FF48050206010BD000070470000C0
:1016500040F23071C2F200010A6840F214400132D7
:10166000C4F201000A600168090458BF70474FF4D2
:101670000041016003F00CBFFEE7000043F20000F0
:10168000C4F2000045F2555101604CF6CC410160B6
:10169000032141604FF47A6181604AF6AA2101601A
:1016A00070470000FEE700007047000070B544F28C
:1016B0000C40C4F20100016840F2000421F0010175
:1016C0000160C2F20004A17BA07C40F29445012994
:1016D000C2F200050AD10130C1B20729A07422BFAD
:1016E0000120A074E87200F001000AE00138010650
:1016F000A07403D106200121A074E972012121EA1E
:1017000000006073EFF3108072B6A87B10B9A07C64
:1017100000F0F6FB62B600F0BFFB40F21056C2F2DA
:101720000006A86F716801F5FA71884284BF012034
:10173000A07200206877A876A07C216D06EB40029D
:10174000B5F84800518202F08BF8B5F84A00B5F8B8
:101750004810226D084402EB500040F27062C2F261
:10176000000292F82F20410805F11E032165002A8E
:1017700008BF05F11B031A78800851438A092A879C
:10178000A27AA0EB9110002AA5F8420008BF01F050
:10179000D9FDB06842F20F7188429CBF0130B06041
:1017A00070BD0000704700007047000041F200006B
:1017B000C4F20200016841F001010160016889077B
:1017C00009D4016889075CBF01685FEA817102D4AE
:1017D00001688907F2D5416821F00301416000BF2B
:1017E000416811F00C0F0BD0416811F00C0F07D0BD
:1017F000416811F00C0F03D0416811F00C0FEFD1CC
:1018000001684FF6FF72CFF6F262114001600021CD
:10181000416041F61071C1624FF4801101634FF4D1
:101820001F0181604EF6085041F20001CEF2000027
:10183000C0F600010160704710B50B20C0F218001F
:10184000012101F023FA42F60044C4F2010441F2FE
:101850008730E0620020A06246F66800A061682040
:10186000E06120460021012205F018F820460221FF
:10187000012205F013F820460421012205F00EF89C
:101880002046012105F03AF8606C3C2161F3070025
:1018900060641124C0F214042046012101F0F6F91D
:1018A000601C012101F0F2F940F20044C4F600048A
:1018B000204602210022022302F0E4F82046022101
:1018C0000022012302F0DEF84FF0904002210022B6
:1018D000802302F0D7F820460121022202F0F2F81C
:1018E00020460021022202F0EDF84FF0904007213F
:1018F000022202F0E7F84FF09040022100224FF45C
:10190000806302F0BFF84FF09040022100224FF4B4
:10191000007302F0B7F84FF09040022100224FF41C
:10192000807302F0AFF84FF090400A21022202F0DB
:10193000C9F84FF090400921022202F0C3F84FF09D
:10194000904008210222BDE8104002F0BBB8000020
:1019500042F21000C4F200004FF6FE71016004F084
:1019600023BD000044F21000C4F201004FF6FE71E6
:1019700001604FF6FD7101607047000044F21040B5
:10198000C4F2010000210160FFF790BE40F2104058
:10199000C4F200000168890744BF4FF6FD71016081
:1019A0000168C9071CBF4FF6FE7101607047000057
:1019B00070470000FEE700004EF60C50BFF34F8F5B
:1019C000CEF200000168042201F4E061C0F2FA5294
:1019D00011430160BFF34F8F00BF00BF00BF00BFC6
:1019E000FAE700000A78436802F0010223F48073EA
:1019F00043EA022242604A78836862F341038360CB
:101A00008A78836802F0010223F4006343EAC22269
:101A10008260C978C26A013901F00F0122F47002B4
:101A200042EA0151C16270474FF080710160704716
:101A3000816841F008018160704700008068C0F350
:101A4000C0007047816841F0040181607047000068
:101A50008068C0F380007047826801F0010122F4C1
:101A6000807242EA0121816070470000826861F360
:101A7000000282607047000080B5112900F2A78043
:101A8000DFE811F012007E0056006A003800920074
:101A90001401740026014C001E012E0042009C001F
:101AA000240060001A008800D0F810C063F3020C14
:101AB000C0F810C08BE000BFD0F80CC003F0070ED8
:101AC0002CF4E01343EA8E4380E000BFD0F80CC052
:101AD00003F0070E2CF4E04343EA0E3376E000BF38
:101AE000D0F80CC003F0070E2CF0380343EACE0305
:101AF0006CE000BFD0F810C003F0070E2CF4E043F8
:101B000043EA0E33036162E0D0F80CC003F0070E25
:101B10002CF4E07343EA8E1358E000BFD0F810C0F5
:101B200003F0070E2CF0605343EACE6303614EE0EE
:101B3000D0F810C003F0070E2CF4E07343EA8E13C4
:101B4000036144E0D0F80CC003F0070E2CF46033BE
:101B500043EACE333AE000BFD0F810C003F0070EDE
:101B60002CF4606343EA4E23036130E0D0F810C0E8
:101B700003F0070E2CF4600343EA4E53036126E0A2
:101B8000D0F810C003F0070E2CF0380343EACE0360
:101B900003611CE0D0F80CC003F0070E2CF46003C6
:101BA00043EA4E5312E000BFD0F810C003F0070E16
:101BB0002CF4603343EACE33036108E0D0F80CC064
:101BC00003F0070E2CF4606343EA4E23C360013A2E
:101BD0000F2A88BF80BDDFE802F009452D391B4B75
:101BE000573F63275D1521510F3300BF426B61F3EF
:101BF0000402426380BD00BFC26A61F38E22C262EA
:101C000080BD00BF026B61F35D62026380BD00BFF7
:101C1000426B61F31852426380BD00BFC26A61F338
:101C20000402C26280BD00BF026B61F3D332026363
:101C300080BD00BF426B61F38E22426380BD00BF56
:101C4000C26A61F3D332C26280BD00BF426B61F3EE
:101C5000D332426380BD00BF026B61F3491202635D
:101C600080BD00BF426B61F34912426380BD00BF7B
:101C7000426B61F35D62426380BD00BFC26A61F383
:101C80004912C26280BD00BF026B61F304020263AD
:101C900080BD00BF026B61F31852026380BD00BFBC
:101CA000026B61F38E22026380BD00BFD0F810C0CA
:101CB00003F0070E2CF4E01343EA8E43036186E73A
:101CC000D0F80CC063F3020CC0F80CC07FE700BF73
:101CD000D0F810C003F0070E2CF0E06343EA0E6367
:101CE000036174E7836808294FEA414106D343F052
:101CF0000073836001F4602103E000BF23F00073F0
:101D00008360836802F0010223F460231943816039
:101D1000816821F4801141EA02518160704700001E
:101D2000826801F0010122F4800242EA815181605F
:101D30007047000042F20841C4F201010A6800F055
:101D4000010022F4000242EAC0500860704700001F
:101D5000F0B581B02825C4F6000505F57674204657
:101D60000121002202230126022701F08BFE4FF001
:101D70009040012100224FF48063C5F800744FF4B5
:101D8000806701F07FFE20460121002201232F60A1
:101D900001F078FE4FF09040012100224FF40073D3
:101DA000C5F800644FF4007401F06CFE4FF09040F1
:101DB0000121002280232C60802401F063FE4FF07B
:101DC0009040012100224FF480732C604FF4807406
:101DD00001F058FE2C6001B0F0BD000070B540F27B
:101DE0007065C2F20005287D40F20044C4F600048C
:101DF0000028204606D002210022022301F042FEE4
:101E000007E000BF012100220223022601F03AFE72
:101E1000A6624FF09040022100224FF4806301F04F
:101E200031FE287D30B1204602210022012301F03D
:101E300029FE07E02046012100220123012601F0AE
:101E400021FEA6624FF09040022100224FF4007361
:101E500001F018FE287D38B14FF090400221002299
:101E6000802301F00FFE0CE04FF090400121002292
:101E70008023802501F006FE4FF62840CFF6FF7044
:101E800025504FF09040022100224FF48073BDE8AE
:101E9000704001F0F7BD000040F20C51C2F20001A9
:101EA0000A681009182840F21C00C4F2010004D886
:101EB000026822F0040202600A68B2F5167F03D9B4
:101EC000016841F00401016040F20D01C2F200011D
:101ED0000A78B2FA82F252095205C0F8EC23097866
:101EE0004905C0F8F0137047002818BF70471C2040
:101EF000C4F20100026861F3000202607047000052
:101F00000138052888BF70472DE9F041DFE810F05F
:101F1000060004018000C2004200460128254FF05F
:101F20009040012100228023C4F600050126802470
:101F300001F0A8FD4FF09040012100224FF4807382
:101F40002C604FF4807401F09DFD2C6005F57674D3
:101F5000204601210022012301F094FD4FF0904022
:101F6000012100224FF40073C5F8F0634FF40076AE
:101F700001F088FD40F270602E60C2F20000007D2A
:101F8000002800F07381204602210022022301F084
:101F900079FD74E12825C4F6000505F57674204620
:101FA0000121002202230126022701F06BFD4FF0E0
:101FB0009040012100224FF48063C5F800744FF473
:101FC000806701F05FFD4FF09040012100228023E7
:101FD0002F60802701F056FD4FF090400121002234
:101FE0004FF4807345F8107C4FF4807701F04AFD80
:101FF00040F270602F60C2F20000007D002800F007
:102000000D81204602210022012301F03BFD0DE15C
:102010002826C4F6000606F57674C525204601215B
:1020200000220123C4F20005012701F02BFD4FF02F
:102030009040012100224FF40073C6F800744FF461
:10204000007701F01FFD20460121002202233760A6
:10205000022401F017FD4FF09040012100224FF4BF
:102060008063C6F8F0434FF4806401F00BFD40F24A
:1020700070603460C2F20000007D002800F0DE8055
:102080004FF0904002210022802301F0FBFC4FF42E
:10209000807314E12826C5254FF0904001210022CD
:1020A0008023C4F60006C4F200054FF00108802426
:1020B00001F0E8FC4FF09040012100224FF48073C2
:1020C00034604FF4807401F0DDFC346006F5767402
:1020D0002046012100220223022701F0D3FC4FF009
:1020E0009040012100224FF48063C6F8F0734FF452
:1020F000806701F0C7FC40F270603760C2F20000F8
:10210000007D002800F0A680204602210022012345
:1021100001F0B8FCA6E000BF2826C4F6000606F5CC
:10212000767440F2C5082046012100220223C4F241
:1021300000080127022501F0A5FC4FF09040012185
:1021400000224FF48063C6F800544FF4806501F01C
:1021500099FC2046012100220123356001F092FC08
:102160004FF09040012100224FF40073C6F8F07345
:102170004FF4007401F086FC40F270603460C2F2EB
:102180000000007D002800F081804FF09040022187
:102190000022802301F076FC81E000BF2826C4F6EF
:1021A000000606F57674C52520460121002201238C
:1021B000C4F20005012701F065FC4FF090400121B9
:1021C00000224FF40073C6F800744FF4007701F05A
:1021D00059FC4FF090400121002280233760802776
:1021E00001F050FC4FF09040012100224FF4807329
:1021F00046F8107C4FF4807701F044FC40F27060A8
:102200003760C2F20000007D00284DD02046022138
:102210000022022301F036FC4FE000BF20460121DE
:102220000022012301F02EFCC5F80064C520C4F291
:10223000000000F120054FF4007340E04FF09040A3
:10224000012100228023802401F01CFC34604FF423
:10225000807334E0204601210022012301F012FCAA
:10226000C6F8008410354FF4007328E020460121A1
:1022700000220223022401F005FCC5F80044C52019
:10228000C4F2000000F1100517E000BF4FF09040CD
:10229000012100228023802401F0F4FB346008F146
:1022A00020054FF480730AE020460121002202231A
:1022B000022401F0E7FBC6F800444FF480634FF0BE
:1022C00090400221002201F0DDFB1C20C4F201003D
:1022D0000560BDE8F04170472DE9F04F89B040F24C
:1022E0006C56C2F200063168F06F40F21049401A95
:1022F000C2F20009A9F80E0082B240F28440C2F294
:102300000000038850099A42A9F80C0040F26A8143
:1023100040F28003C2F200031B889A4280F062817F
:10232000371D8CCF3569511A89B281424FF00001B7
:1023300088BF01210891F91A89B2814271694FF071
:102340000002A1EB050188BF012289B206928142F9
:10235000D6E906214FF00003A1EB020189B288BF44
:1023600001238142D6E908210593A1EB02014FF038
:10237000000389B288BF01238142D6E90A2107936D
:10238000A1EB02014FF0000389B288BF0123814213
:102390004FF00001049388BF012106F1300703913B
:1023A0008ECF4FF0000C511A89B281424FF00001DC
:1023B00088BF01210191F91A89B28142D6E9102121
:1023C0004FF00003A1EB020189B288BF01238142D3
:1023D000D6E912210293A1EB020189B288BF4FF026
:1023E000010C8142D6E914214FF00003A1EB020158
:1023F00089B288BF01238142D6E916414FF000021D
:10240000A1EB040188BF012289B2D6E918458142B7
:102410004FF00001A5EB040488BF0121D6E91A574B
:10242000A4B28442A7EB0508D6E91C74D6E91E6560
:10243000A4EB07074FF000041FFA88FBA5EB060684
:1024400088BF012483454FF00008BFB288BF4FF01A
:10245000010887424FF0000AB6B240F2D84588BF63
:102460004FF0010A8642C2F200054FF000062E80AE
:1024700088BF012683454FEAC40B40F2A34E88BFB4
:102480000BF1040B40F2AA45C2F2000E874288BF4E
:102490000BF1020BC2F200059EF800002D78C0B2CD
:1024A00028430898039DC9F828000698C9F84C30BD
:1024B000C9F82C000598D9F82C70C9F8300009F13A
:1024C000580080E81005D9F82800049C87EA050721
:1024D00080EA040083EA070380EA0C004FEA8303E2
:1024E000C9F83C5043EAC000D9F83030019DC9F822
:1024F000502083EA050382EA0302C9F8384040EA23
:1025000042040798029AC9F8340080EA020077462C
:10251000C9F8405080EA0105C9F864605E44C9F812
:1025200048C0C9F84420C9F854100CD101F0B8F9DA
:1025300048B199F804000130C1B2652989F8040056
:1025400024BF012038703878002804F0FE002844A9
:1025500018BF86F00F0686423CD109F128078FCFBD
:10256000490241EA802040EA0220D9E90F6540EAA9
:10257000C31040EA8710D9F8444040EA461009F1F8
:10258000480740EA05108ECF40EAC40040EA8100C7
:1025900040EA420040EA0301B9F8102040F2D84373
:1025A0000020C2F200031880501C012FA9F810006F
:1025B00005D140F2A140C2F200000122027099F858
:1025C0000600B8B1022811D0012829D1A9F81210AB
:1025D000022005E0B9F814000130A9F81400002029
:1025E00089F8060009B0BDE8F08F00BF89F8071030
:1025F0000320F5E7302921DB99F80100F0B140F222
:10260000D240C2F20000018040F26C60C2F20000D1
:102610000021017089F8021009B0BDE8F08F00BFF9
:10262000032808BF2529DDD199F80700B9F8121051
:1026300040F27062C2F200025054D0E7481E2E28C9
:102640000CD840F2D240C2F200000022028040F2D8
:102650006C62C2F20002C8B211701BE031B140F2EC
:102660006C60C2F20000007814E000BF99F800002E
:1026700040F2D241012804BF002089F80100C2F2D3
:1026800000010020088040F26C61C2F20001087075
:1026900089F802000028A5D040F2A641C2F200014C
:1026A000097800299ED140F2AA41C2F200010978BE
:1026B000002997D099F8031088421EBF89F80300BB
:1026C000002189F80210062808D399F80210013178
:1026D000CAB2062A89F80210FFF484AF411E002412
:1026E000232989F8024000F2BA80DFE801F0136381
:1026F0004599A14D6B79B1A9B829553DB8B8B8B87D
:10270000B81B87B8B8B8B8B8B8B8B8B8B8B8B8B817
:10271000B89300BF40F29E41C2F200010120087050
:102720009DE000BF40F27060C2F20000407C40F2C9
:102730000E01C0F10100C2F20001087014208EE009
:1027400002F080FF40F27060C2F20000407C40F274
:102750009E42411C40F26C60C2F20000C2F20002D4
:10276000007811707BE000BF002089F8050001208F
:1027700089F809000E2072E040F29E41C2F2000189
:10278000032008706BE000BF40F2B440C2F20000CA
:1027900001210170062062E099F80010012089F8FB
:1027A0000500012989F8080008BF89F801000D20FB
:1027B00055E000BF40F29E41C2F2000102200870C5
:1027C0004DE000BF40F27060C2F200000021417491
:1027D00040F20E00C2F200000121017007203EE02D
:1027E00040F27060C2F200000121417440F20E001C
:1027F000C2F2000000210170082030E040F2706059
:10280000C2F20000407C40F20E01C2F200010870EA
:10281000152024E0012089F8060024201FE000BFD5
:1028200040F29E41C2F200010420087017E000BF90
:1028300040F29E41C2F20001052008700FE000BF87
:1028400040F27060C2F20000012181740A2006E0AB
:1028500040F27060C2F2000000218174092040F251
:10286000C871C2F20001087040F26C60C2F2000050
:10287000047009B0BDE8F08F70B582B040F26C55BD
:10288000C2F20005D5E9000140F27652081AA0F222
:10289000213140F278449142C2F200041ED862789D
:1028A00040F2D841C2F2000100230B80E2B1E1788E
:1028B00000296FD1A17840F21C0600290CBF2081AD
:1028C00020890131C2F20006A170318880B200F087
:1028D000C7FF332836D30020607054E040F2CE406A
:1028E000C2F2000093E000BF40F27061C2F200014A
:1028F000897C99B140F21E01C2F200010A8890421F
:1029000076D940F21C01C2F200010B88511C4FF431
:10291000FA661A4640F2E93371E000BF40F21A014C
:1029200040F21C02C2F20001C2F2000209881288C1
:1029300040F2FF762F23009602F02EFB3128B8BF1D
:1029400000205FE03088D5E90012C0EBC000511ACA
:102950000844A178C0083329308014D34FF62A11D7
:102960001938CFF6FF71308011FA80F000EBD0708B
:1029700040F270614008C2F2000181F8210001209C
:10298000E07002F08DFCE07831882181D8B3D5E980
:102990000001081A40F2E1412279884240F21A010E
:1029A000C2F2000107D80B880132C3EBC3031844FD
:1029B000C00822710880D0B24C2824D30888002592
:1029C000193008804FF61251CFF6FF7111FA80F0DE
:1029D00000EBD07040F270614008C2F2000181F853
:1029E0002000657002F02EFE257102F025FC0AE041
:1029F00040F21A01C2F2000109884FF47A7600967B
:102A000002F0CAFA206140F2D840C2F2000040F25F
:102A1000D241C2F2000140F2D80622690B88C2F20C
:102A200000063668D51AB5424FF00005058003DD73
:102A30009A190A8002B070BD981AB042C8BF9A1B9A
:102A40000A8002B070BD000041F20401C4F202012C
:102A50000A6860F38F320A600A68800860F31C72AB
:102A60000A60704741F20401C4F202010A6800F0F2
:102A70000F0022F0F00242EA0010086070470000E8
:102A800041F20401C4F202010A6800F0070022F4D6
:102A9000E06242EA002008607047000041F2040151
:102AA000C4F202010A6800F0070022F4605242EA10
:102AB000C02008607047000041F25401C4F20201D6
:102AC0000A68012822F0300208BF30320A607047DD
:102AD000042888BF7047DFE800F0032F17250D009A
:102AE00041F20000C4F20200026861F300020260D9
:102AF000704700BF41F20000C4F20200426A61F375
:102B000000024262704700BF41F20000C4F20200BE
:102B1000026801F0010122F0807242EA0161016065
:102B2000704700BF41F20000C4F20200026A61F384
:102B300000020262704700BF41F20000C4F20200CE
:102B4000026801F0010122F4803242EA0141016091
:102B50007047000041F20401C4F202010B6841F227
:102B60000022C0F27A02C3F38103F0B5DFE803F07C
:102B70002A02360202600B6837A7C3F30313FB5C1B
:102B800046F69257DA4042600B68C0F60007C3F37E
:102B90000223FB5C22FA03F3C3600B68C3F3C22376
:102BA000FB5C0427DA4082600B68096807EA9363DC
:102BB000C1F3813119442CA3595CB2FBF1F10161DD
:102BC000F0BD00BF0B6D9B05D4D5CB6A9B0144BF04
:102BD00046F60042C0F2DC22CCE700BF0B688C6AEC
:102BE0001F0C002C1ED40C680B68A40CC3F341739B
:102BF0001D0104F00F046E1C0F2C354618BF022572
:102C0000002B18BF3546FB0705EB040304D00F6803
:102C1000BF0301D45A43ADE740F60012C0F23D02B3
:102C20005A43A7E78B6A8C6AC3F3031E8B6A40F68C
:102C3000001CC0F23D0CC4F30824FD0703F0070399
:102C400003D00D68AD0358BF94460CFB04F20EFA96
:102C500003F3B2FBF3F28DE7000000000000000078
:102C6000010203040607080902040608020C081002
:102C700041F20002010CC4F20202895800F01F0068
:102C800021FA00F000F001007047000041F200025C
:102C900000F01F034FF0010CC4F2020201290CFAEC
:102CA00003F14FEA1040835814BF23EA010119438E
:102CB0008150704741F2000200F01F034FF0010CF9
:102CC000C4F2020201290CFA03F14FEA10408358C2
:102CD00014BF23EA010119438150704741F20402F5
:102CE000C4F20202136868B143F4803313601368BE
:102CF000012807BF23F400334FF0007043F4003382
:102D0000002002E023F4803300201360136861F395
:102D1000954313601368090961F35E731360916A48
:102D200021F0E061084390627047000041F200002A
:102D3000C4F20200016841F00101016001688907E5
:102D400009D4016889075CBF01685FEA817102D418
:102D500001688907F2D5416821F00301416000BF95
:102D6000416811F00C0F0BD0416811F00C0F07D027
:102D7000416811F00C0F03D0416811F00C0FEFD136
:102D800001684FF6FF72CFF6F26211400160002138
:102D9000416041F61071C1624FF4801101634FF43C
:102DA0001F0181607047000041F20401C4F202017A
:102DB0000A6860F301020A607047000041F20400F3
:102DC000C4F202000068C0F38100704744F6240199
:102DD000C4F201010A6880B20BE000BF0B689B1AC5
:102DE0009BB2984298BF70470B689B1A9BB298425F
:102DF00009D90B689B1A9BB2984204D90B689B1A9D
:102E00009BB29842EAD87047002808BF704780B547
:102E100044F62401C4F2010110F0030C864647D0A9
:102E20000A684FF6F87E00BF0B689B1A9BB2DB085E
:102E30007C2B12D80B689B1A9BB2DB087C2B0CD81E
:102E40000B689B1A9BB2DB087C2B06D80B689B1A7D
:102E500003EA0E03B3F57A7FE6D3BCF1010F05D187
:102E6000A0F1010E042825D349E000BF0A684FF6FF
:102E7000F87E00BF0B689B1A9BB2DB087C2B12D834
:102E80000B689B1A9BB2DB087C2B0CD80B689B1A37
:102E90009BB2DB087C2B06D80B689B1A03EA0E0357
:102EA000B3F57A7FE6D3BCF1020F07D1A0F1020E91
:102EB000042824D2BDE88040704700BF0A684FF65E
:102EC000F87C00BF0B689B1A9BB2DB087C2B12D8E6
:102ED0000B689B1A9BB2DB087C2B0CD80B689B1AE7
:102EE0009BB2DB087C2B06D80B689B1A03EA0C0309
:102EF000B3F57A7FE6D3A0F1030E0428DAD34FF6B8
:102F0000F87002E0BEF1040ED4D00B680A68D21A41
:102F100092B2D2087C2A11D80A68D21A92B2D20888
:102F20007C2A0BD80A68D21A92B2D2087C2A05D819
:102F30000A68D21A0240B2F57A7FE7D30B6800BF65
:102F40000A68D21A92B2D2087C2A11D80A68D21A18
:102F500092B2D2087C2A0BD80A68D21A92B2D2084E
:102F60007C2A05D80A68D21A0240B2F57A7FE7D3E4
:102F70000B6800BF0A68D21A92B2D2087C2A11D814
:102F80000A68D21A92B2D2087C2A0BD80A68D21ADE
:102F900092B2D2087C2A05D80A68D21A0240B2F549
:102FA0007A7FE7D30B6800BF0A68D21A92B2D208C0
:102FB0007C2AA7D80A68D21A92B2D2087C2AA1D851
:102FC0000A68D21A92B2D2087C2A9BD80A68D21A0E
:102FD0000240B2F57A7FE7D394E700002DE9F04391
:102FE00040F26C5CC2F2000C40F27C0EDCF8004057
:102FF000C2F2000E44F6206200230021AEF8022047
:1030000003E000BF2833782B7AD00CEB030045682F
:103010002C1B1BD18468651B21D1C5682C1B27D1B3
:103020000469651B2DD145692C1B33D18469651B4F
:1030300039D1C5692C1B3FD1046A651B45D1456A4E
:103040002C1B4BD1846A601BDCD051E0214494429C
:103050003CBFA2B2AEF802408468651BDDD02944B3
:1030600095423CBFAAB2AEF80250C5682C1BD7D01F
:10307000214494423CBFA2B2AEF802400469651BF1
:10308000D1D0294495423CBFAAB2AEF8025045695E
:103090002C1BCBD0214494423CBFA2B2AEF80240DC
:1030A0008469651BC5D0294495423CBFAAB2AEF8DD
:1030B0000250C5692C1BBFD0214494423CBFA2B230
:1030C000AEF80240046A651BB9D0294495423CBF62
:1030D000AAB2AEF80250456A2C1BB3D021449442E8
:1030E0003CBFA2B2AEF80240846A601B3FF48AAFD4
:1030F000014490423CBF82B2AEF8020082E700BFBA
:1031000040F2AC48C2F2000898F8000040F2784C57
:103110004C09C2F2000C0128CCF8184032D1541EE0
:10312000022C0FD8CC090E2C0CD840F2D504C2F2D8
:1031300000040025257001248CF8064088F8004022
:103140000E2411E0141F042C1CD8CC09182C19D8FB
:1031500040F2D5050124C2F2000588F800402C7029
:1031600003248CF80640072440F2D405C2F200057F
:103170002C7020248EF8004040F2AB44C2F20004D0
:103180000125257040F2AD49C2F2000999F80060AE
:10319000A2F1C905012E14D144F65657BD4210D8EC
:1031A00040F2D503C2F2000377241C7002238EF88C
:1031B000003040F2AB430127C2F2000389F80070EF
:1031C0001F70304302D0BDE8F08300BF501E0228BC
:1031D0004FEAD11098BF0E2816D9111F042998BFA5
:1031E00018281FD944F65650854288BFBDE8F083A1
:1031F000012089F8000040F2D500C2F200007721DA
:103200000170022020E000BF40F2D500C2F20000B1
:103210000021017001208CF8060088F800000E20C3
:103220000CE000BF40F2D5010120C2F2000188F895
:103230000000087003208CF80600072040F2D4013B
:10324000C2F20001087020208EF8000040F2AB406E
:10325000C2F2000001210170BDE8F083026861F351
:10326000000202607047000000210182C0E90011E5
:10327000C0E90211704700000021C4F20201096890
:10328000084018BF0120704702684BF6EF731A40E0
:1032900002600A8903681A4302604A7C036802F0EC
:1032A000030223F4405343EA02320260CA7B0368FC
:1032B00002F0030223F4406343EA822202608A7B25
:1032C000036802F0030223F4407343EA022202601F
:1032D0004A7B036802F0010223F0800343EAC21232
:1032E00002600A7B036862F3861303600A7C03684A
:1032F00062F3451303604A8942600A688260496844
:10330000C1607047016800F0FC024CF6CD43083AFA
:10331000CCF6CC43A2FB032321F001010160002184
:103320000422016041608160C1606FF00300C4F25B
:10333000020200EA93000F21136801FA00F018431B
:103340001060704740F20040C4F20100016841F48F
:10335000001101607047000010B542F60044C4F24D
:10336000010420460021012203F04CFA20460221EC
:10337000012203F047FA20460421012203F042FA19
:1033800020460121012203F03DFA204603210122BB
:1033900003F038FA20460521012203F033FA2068B1
:1033A00040F001002060606C40F40040606460699F
:1033B00040F00100606144F20040C4F20100016885
:1033C00040F2004441F0010101604169C4F200048F
:1033D00041F001014161C16821F00101C160D0F8F3
:1033E000001441F00101C0F80014D4F8000C40F0C2
:1033F0000100C4F8000C41F21400C4F2000001689E
:1034000041F00101016042F20000C4F200000168D5
:1034100041F001010160416941F001014161C16870
:1034200041F00101C160FEF713F82046002101229E
:1034300003F0E8F92068202140F0010020604EF2FE
:103440000740CEF2000001704EF20010CEF20000F4
:103450008021016040F20040C4F20100016841F4A3
:103460000041016010BD000042F20C01C4F20201F3
:103470000860704742F21000C4F20200016841F097
:10348000800101607047000042F20C01C4F20201A9
:103490004A6842F002024A608860486840F0400092
:1034A00048600868C0070DD10868400746D408681E
:1034B000C0064FF0020058BF03204A6822F0020203
:1034C0004A6070474FF080420868C00700F08B8068
:1034D0000868C00738D00868C0073BD00868C00734
:1034E0003ED00868C00741D00868C00744D00868CB
:1034F000C00747D00868C0074AD00868C0074DD049
:103500000868C00750D00868C00753D00868C007D3
:1035100056D00868C00759D00868C0075CD0086852
:10352000C0075FD00868C00768D0103ACCD104202B
:103530004A6822F002024A60704700BF01204A68D0
:1035400022F002024A607047013A086840074DD5F0
:1035500058E000BF023A0868400747D552E000BF74
:10356000033A0868400741D54CE000BF043A0868B8
:1035700040073BD546E000BF053A0868400735D50F
:1035800040E000BF063A086840072FD53AE000BF88
:10359000073A0868400729D534E000BF083A0868B0
:1035A000400723D52EE000BF093A086840071DD523
:1035B00028E000BF0A3A0868400717D522E000BF9C
:1035C0000B3A0868400711D51CE000BF0C3A0868A8
:1035D00040070BD516E000BF0D3A0868400705D537
:1035E00010E000BF0E3A086840070BD40868C00618
:1035F0004FF0020058BF032005E000BF0F3A0868F3
:103600004007F3D50120012A08BF04204A6822F0B0
:1036100002024A607047000042F2040040F22311A7
:10362000C4F20200C4F26751016048F6AB11CCF657
:10363000EF5101607047000042F20C02C4F2020236
:10364000536843F00103536001601068C0070DD157
:103650001068400746D41068C0064FF0020058BFFB
:103660000320516821F00101516070474FF480112F
:103670001068C00700F08B801068C00738D0106851
:10368000C0073BD01068C0073ED01068C00741D0CB
:103690001068C00744D01068C00747D01068C00742
:1036A0004AD01068C0074DD01068C00750D01068CD
:1036B000C00753D01068C00756D01068C00759D053
:1036C0001068C0075CD01068C0075FD01068C007E2
:1036D00068D01039CCD10420516821F0010151602B
:1036E000704700BF0120516821F00101516070470F
:1036F0000139106840074DD558E000BF0239106805
:10370000400747D552E000BF03391068400741D554
:103710004CE000BF0439106840073BD546E000BFCD
:1037200005391068400735D540E000BF06391068FC
:1037300040072FD53AE000BF07391068400729D568
:1037400034E000BF08391068400723D52EE000BFE1
:103750000939106840071DD528E000BF0A391068F4
:10376000400717D522E000BF0B391068400711D57C
:103770001CE000BF0C39106840070BD516E000BFF5
:103780000D391068400705D510E000BF0E391068EC
:1037900040070BD41068C0064FF0020058BF03204A
:1037A00005E000BF0F3910684007F3D5012001295B
:1037B00008BF0420516821F00101516070470000EA
:1037C000F0B581B02825C4F6000505F576742046CD
:1037D0000121002202230126022700F053F94FF0B5
:1037E0009040012100224FF48063C5F8F0734FF43C
:1037F000806700F047F920460121002201232F6055
:1038000000F040F94FF09040012100224FF4007386
:10381000C5F8F0634FF4007400F034F94FF09040B5
:103820000121002280232C60802400F02BF94FF02E
:103830009040012100224FF4807345F8104C4FF462
:10384000807400F01FF92C6001B0F0BD42F6144006
:10385000C4F20100016841F00101016070470000FD
:10386000401A48BF404270471C20C4F20100006863
:10387000C0F380707047000048F2E80148434FF4FD
:103880004851A1EB10304FF2CF31CCF63C7150FBD8
:1038900001F0C10801EBD070193000B27047000090
:1038A00040F21040C4F60000006800F010007047BD
:1038B00031B1012908D100230022C90774D1A0E049
:1038C0000022D0B2704700BF70B501F0FE02C2F115
:1038D000000C00226FF0010E072300BF00EB0E0466
:1038E000A578E4786A4055B2D2B25600002D48BFA0
:1038F00083EA420683EA4602350658BF720083EA2D
:103900004205160658BF550083EA45022E0658BFE9
:103910006A0083EA4205160658BF550083EA45024D
:103920002E0658BF6A0083EA4205160658BF5500A6
:1039300083EA45022E0658BF6A00624054B2D2B2F2
:103940005500002C48BF83EA420583EA45022C0655
:1039500058BF6A0083EA4204150658BF540083EA40
:103960004402250658BF620083EA4204150658BF88
:10397000540083EA4402250658BF620083EA4204E9
:10398000150658BF540083EA44020EF1020E2506C4
:1039900058BF62000CEB0E0402349FD10EF10203FB
:1039A000BDE87040C9072CD0C05C0723504041B22D
:1039B000C0B24200002948BF83EA400283EA4200C5
:1039C000110658BF500083EA4001020658BF41006B
:1039D00083EA41000A0658BF480083EA4001020614
:1039E00058BF410083EA41000A0658BF480083EAF5
:1039F0004001020658BF410083EA4102080658BF51
:103A00004A00D0B2704700000A88002A08BF7047F9
:103A1000F0B500234FF0030C4FF0010E002405E039
:103A2000520804F1010403F1020327D0D507F7D0AF
:103A300006680CFA03F5AE4306608E7907689E406F
:103A40003E43066046680EFA04F7BE4346600E79B0
:103A50004768A6403E4346608668AE438660CE799E
:103A600087689E403E438660C66826EA0505C560B5
:103A70004D79C6689D403543C560D1E7BDE8F0404B
:103A800070470000D0F800C05B4303EB43022CEA10
:103A900002025943114301607047000080B5D0F81D
:103AA00000C05B4303EB430E2CEA0E0C594341EA82
:103AB0000C010160C1685A4321EA0E011143C16043
:103AC00080BD000010B51C2303EA810E24234FF0B3
:103AD0000F0C082938BF2023C4580CFA0EF124EA31
:103AE0000101C150C15802FA0EF21143C15010BD7C
:103AF00062B670472DE9F04F81B002F039FB4FF408
:103B0000A0100121FFF7C2F84EF20B47CEF20007DA
:103B100010204EF200163870CEF200064FF400600E
:103B20003060FDF789FE0124C0F21C04E01C012175
:103B3000FFF7ACF841F22800C4F200004FF6FF7125
:103B40004FF03B0B4160C0F800B0E01D01214FF683
:103B5000FF7AFFF79BF842F22800C4F200003221FE
:103B60004FF077094160C0F80090302038724FF470
:103B7000002011253060C0F2140528460121FFF70E
:103B800085F84FF4C0100121FFF780F84FF0904006
:103B90000321002202234FF00008FFF773FF4FF0CC
:103BA0009040032100222023FFF76CFF87F801805B
:103BB0004FF48050306000200121FEF795F912206B
:103BC000C0F218000121FFF761F844F62C00C4F29E
:103BD0000100C0F800A044F6000AC4F2010ACAF8C5
:103BE0002890DAF80000012140F08000CAF80000B7
:103BF00005F58020FFF74AF84FF62C40CFF6FF700E
:103C00004FF4FA714AF800104FF62840CFF6FF70D3
:103C10004AF800B087F80A804FF400103060681C42
:103C20000121FFF733F820460121FFF72FF840F27A
:103C30000044C4F600042046022100221023FFF7AE
:103C400021FF204604210122FFF73CFF4FF4A01082
:103C50000121FFF71BF84420C4F2020040F68A114C
:103C60000160102139704FF40060306040F2004074
:103C7000C4F200004FF6FF72C2628162016841F037
:103C800080010160016841F00101016001B0BDE8FF
:103C9000F04F02F01BBB0000B0B540F20004C2F2CE
:103CA0000004207B50B10025FFF7DEFD617B8842D8
:103CB00008BFB0BD207B01358542F5D3EFF31080FE
:103CC00072B601F091F940F29440C2F20000B0F8EF
:103CD0004810A0F84A1041F22401C4F200010A6819
:103CE000A0F8482000220A6044F20C41C4F201010D
:103CF0008A61B0F84200013008624A60086840F00A
:103D00000100086062B6B0BD2DE9F04381B040F219
:103D10000005C2F2000540F27064E96CC2F20004D2
:103D20002046C02201F010FC607802280CD840F236
:103D3000A010C0F60020C4F805006420A4F8090013
:103D4000E0720020E0602074E07D40F294482A2870
:103D5000C2F2000803D8011FC9B2052902D81021F8
:103D600088F81B10032806D8C10088F81B100A2108
:103D700001EBC000E0750A38C1B2202998BF88F86D
:103D80001B00207EA0F1080188290DD84AF6CC211D
:103D9000C0F21001484348F2F021000CC0F21E01AD
:103DA000B1FBF0F0688602E041F28730288642F6E7
:103DB0004449C4F2010949F8180CA079617E431EF8
:103DC00000EB8000322B4FF00003A27E38BF43008F
:103DD000A1F132000026AB85652828BF314658186E
:103DE000288503F5C870688502EB8200142101EB79
:103DF000C000A882022002F0B1F9607800283FD00C
:103E0000A07F0B2888BF052002F0A8F994F82000B5
:103E100040F2EE2794F8211007EB400094F822209E
:103E2000688340F2D66000EB4100A88302F25E5046
:103E3000E88394F8250094F8281094F82330FA3099
:103E40002884A1F11A006B7110F1160F84F8276015
:103E50009CBF052084F8280094F829000B3810F145
:103E60000B0F9CBF0A2084F8290094F82A00A0F1C7
:103E70000A01C9B2F62905D80A2084F82A001EE0F2
:103E8000A88A96E000EB80006FF02D01A1EB4000C6
:103E9000298DAA8D51FA80F1298552FA80F16A8F15
:103EA000A98552FA80F16A8D698752FA80F12871EA
:103EB0006985D9F80010C0B20843C9F8000094F829
:103EC0002B0040F284078D3810F1480F9CBFFF2073
:103ED00084F82B0094F82C00C2F200070138622805
:103EE0009CBF012088F80500607AA17AE27A94F8F4
:103EF0002D3040005200C7E90101A3F10B0010F181
:103F00000B0FFA609CBF052084F82D0094F82E104A
:103F1000092909D8042910D808F11900DFE801F0AF
:103F200004640B0D680000BF0020A8F8180040F2E0
:103F30001140C2F20000012101706079092807D800
:103F4000092188F81C1028706870A87015E000BF5F
:103F500049F69A11C1F69911A0FB0110002188F8C9
:103F60001C102978884238BF28706978884238BF89
:103F70006870A978884238BFA870A88A2023810871
:103F80004A299CBF0021A97145F62941C0F28F2121
:103F9000A0FB0112E17EB3FBF1F145F25653C1F2F1
:103FA0005553A0FB0337B2FBF1F2B7FBF1F1EA8600
:103FB00029874FF4FA7100914FF4967140F6B832A8
:103FC0004FF47A734FF47A7600F0E6FFA17CA88470
:103FD00040F21050C2F20000002908BF4FF4FA6608
:103FE000466001B0BDE8F083012088F818009EE724
:103FF00040F21040C2F200000121017040F2114075
:10400000C2F200000021017008F1180093E70000DF
:1040100082B0FFF76DFD4FF47E6000684EF2DA313A
:10402000C5F6251140F200058842C2F200051CD1F8
:1040300040F6E470006846F2D931C4F6B8618842AF
:1040400013D140F6EC70017847F600401F29C0F606
:10405000000009D02B2905D0352906D100F5F840FC
:1040600002E000BF00F5BE30E864FFF743FDFFF754
:1040700073F9FFF749FE40F27060C2F20000C078A9
:1040800002280DD140F27060C2F2000000791428BD
:1040900006D140F27060C2F20000407802280DD8CC
:1040A00040F2706041F20241C2F20000A0F8031039
:1040B0000321EA6C4170C02101F0D0FA40F2706136
:1040C000C2F20001487C097D013818BF0120A873A5
:1040D000688E288629B940F270610020C2F2000182
:1040E000C87440F27060C2F2000090F82600C0B1BF
:1040F0004FF47A7040F2706268870120C2F20002C9
:10410000A98DC2F81200A8710020907501F132004B
:10411000E98DA88501F13200298DE88501F1320091
:10412000288543F20006C4F2000601F069F940F266
:10413000944AC2F2000A0020AAF83A00FDF79EFA5B
:104140004AF6AA20306001F035FA9AF800000028FB
:104150001CBF01208AF8040001F0E4FF40F2105B6C
:10416000C2F2000B36E000BF0220FDF7C9FE40F2AC
:104170007067C2F20007387B298E41F26F224843F4
:10418000C0F28302B6461646A0FB0202900800EB7E
:1041900080004FF03C0C42F634430CEB4000C4F27C
:1041A00001031860387B4843A0FB0602900800EB2F
:1041B00080000CEB40005860387B4843A0FB0601B0
:1041C000880800EB80000CEB400076469860AAF867
:1041D0005C4000BFBBF81400BBF81610BBF81820F9
:1041E000BBF81A300844BBF81C401044BBF81E70E2
:1041F000184420443844043040F270624008C2F24F
:104200000002CBF80C00907CDBF8081000284FF07F
:10421000040008BF062005294FF0030128BF084607
:10422000287468744AF6AA203060517D01290DD1A6
:104230006F8E286D7B086021C822009700F0ACFECD
:1042400040F27061C2F20001497D288602294FF0D8
:10425000000416D1DAF87800A0F16501942903D89A
:104260000D2148430CE000BF411E632902D240F2F9
:10427000145005E0FA3810F1FA0F02D840F6B240B7
:104280002886BAF8440042F21171884209D39AF89C
:104290001610002940F0E68449F64141884280F03A
:1042A000E184BAF82C0044F62161884214D3BAF8AC
:1042B0002E0046F2B7020104CBF20B6251FB02F171
:1042C00001EB00400112DAF8702001EBD0701044CD
:1042D000CAF87000AAF82C40BAF83410DBF80800CD
:1042E00089B264284FF0000288BF0122C8294FF02C
:1042F000000338BF0123B0F57A7F05D821B11A40F9
:1043000018BF8AF8114001E08AF8114040F270624B
:10431000C2F20002D27C1AB19F2998BF8AF81140DC
:104320009AF8072032B10909182998BF8AF8114074
:1043300005E000BF95298CBF0A216421E971DBF8F3
:104340000C1045F25652C5F2555251FB02F101EBE9
:10435000D1710B28CAF878103CD39AF80B00C8B377
:10436000DBF81000FFF77CFADAF878100A097C2AEB
:104370002CD84A08904229D940F27060C2F200005D
:10438000807CBAF83C20B0FA80F092B240092F2A23
:104390004FF0000288BF012210429AF80600CBF8C5
:1043A000084000F101008AF8060007D1286DB0F539
:1043B0007A7F88BF8AF8124002E000BF8AF8124074
:1043C000288D01224008AA72AAF830008AF80B4012
:1043D000CBF810109AF80F00296D002818BF0120A3
:1043E00032294FF0000188BF01214EF20B420840F4
:1043F0004FF01001CEF200021CBF002110201170FE
:10440000907250709AF80D0080B19AF81F00BAF8B7
:104410005610BAF82E20BAF87230BAF85C700097CD
:1044200000F04EFC0AF10D080A2007E09AF820007F
:1044300040B100F031FC0AF12008312001F0DEF932
:1044400088F800409AF80C00012840F0BB80FCF787
:10445000E7FF06F574400121FDF762FCBAF85E0043
:10446000FFF70AFABAF8621040F6E44E112201FB97
:104470000EF1C1F20102A1FB0212E98C120A5143B2
:1044800048F21F52C5F2EB125E469346A1FB022C86
:104490009AF8102040F2CA78C2F20008336838F85F
:1044A0001270BAF84640DB1B2344A946A3FB0B75E8
:1044B000C5F30F174EF60541B34607FB0EF6C0F2E3
:1044C0004F01A6FB016128F812400132BAF856608C
:1044D000CBF80030D3B2AAF860008AF81F00312B65
:1044E00088BF0022C6EBC6008AF810202A0940F2D5
:1044F0007066C2F20006AAF836200A0400EB5C10CF
:1045000096F824204FEAD0034FF00004AAF8563062
:10451000CAF8747048BF2146022AAAF82E1011D09A
:1045200043F20006012AC4F200064D462BD19AF848
:104530000800298C9AB24843904215D9BAF82A004B
:1045400001301EE040F27061C2F20001097AC0F34E
:10455000CF0088420CD2BAF82A0043F2000601309C
:10456000C4F200064D460CE09AF8020058B907E084
:104570009AF8020043F20006C4F200064D4610B954
:104580000020AAF82A009AF813004DF65413BAF83E
:104590002A1042F21072CFF6FF7310FB03208842FC
:1045A0000EDA01208AF80200AAF83C40FDF7D0FBA1
:1045B00000F01AFD8AF81240AAF83A408AF816402C
:1045C0008AF80C409AF813008AF81440002841D069
:1045D000BAF83C0031285DD39AF81610002959D05A
:1045E000882800F285809AF80100A0B144F20C41BD
:1045F000C4F20101086820F00100086000F0F4FC3A
:1046000042F63440C4F20100C0E900448460FDF782
:10461000E5FB8AF80140AB7BBAF84C00BAF84E10C3
:10462000BAF85020B146002B00F09081013803B257
:104630000139002B0BB2A2F1010248BF40F2671012
:10464000002B13B248BF40F26711002B48BF40F265
:1046500067128EE1DBF80C0042F2C072C0F2090270
:104660009AF8121092FBF0F04843AAF85C0080B26E
:104670004CF6CD414843A979C00C0029AAF8640042
:1046800058D0E98E2A8F6B8FAF8F009700F084FC93
:10469000014651E040F27060C2F20000007F01214B
:1046A00002288AF801103FF45FAD012840F0E28053
:1046B00040F27060C2F2000090F82900298EC822F2
:1046C000504344F6D35300FB01F2C1F26203A2FB54
:1046D0000323AAF82200A1EBD31081B26329AAF820
:1046E0005A0000F27D82FFF76BF8AAF85C4071E592
:1046F000AB7BBAF84C00BAF84E10BAF85020002B39
:104700004FF001038AF8013000F0B281013803B2A2
:104710000139002B0BB2A2F1010248BF40F2671031
:10472000002B13B248BF40F26711002B48BF40F284
:104730006712B0E14FF4FA6140F27062C2F2000217
:104740009AF81F0092F82B20A986904209D9AB8FC6
:10475000A2F10A010A325B080127009700F01CFC55
:10476000A886DBF80800632806D8296DB1F5FA7F22
:1047700002D90C200BE000BFDAF8780064214FF476
:10478000FA7203230C27009700F006FC296D3229EA
:1047900040F27061C2F2000138BF022091F82F1080
:1047A00041F22402C4F20002287379B1BAF8400041
:1047B00064214FF4FA620D231727009700F0ECFBF9
:1047C00041F22402C4F200028AF81E00106842F28C
:1047D00011718842FFF4FEAC9AF8120001287FF4B0
:1047E000F9AC9AF8110001308AF8110000F0FCFBD6
:1047F000BAF83C0041F224072F284FF00100A872BC
:104800009EBF8AF8124041F288302865CBF80840F4
:10481000C4F200073868AAF848003C60296D80B2ED
:10482000FFF71EF8286DBAF8481000EB4000084466
:104830009AF81B208108296551438A09AAF8382073
:10484000DBF80820C008A0EB9110052AAAF8420066
:104850001CD23868A97BA87C012927D10130C1B2BC
:104860000729A87422BF0120A8748AF80B0000F061
:10487000010027E042F63440C4F20100C0E90044E0
:104880008460FDF765FAAAF85C40A3E480B200BF3B
:1048900039688142DED239688142DBD2396881428F
:1048A000D8D239688142F3D3D4E700BF013801067A
:1048B000A87404D106200121A8748AF80B100121E4
:1048C00021EA00006873EFF3108072B69AF80E00C8
:1048D00010B9A87CFDF714FB62B6FDF7DDFADAF833
:1048E0007800DBF8041040F2706301F5FA71884239
:1048F00084BF0120A872A97C286DC2F200030BEBD3
:10490000410193F826204882DBF808105B7FD2B281
:1049100001311A438AF81A408AF81D408AF8154076
:10492000CBF8081008D01429FFF454ACB0F5FA6F96
:1049300007D9FFF74FBC00BFDBF804108842BFF473
:1049400049ACAC72FEF7FEFCFFF744BC013003B289
:104950000131B3F5B47F0BB202F10102A8BF002010
:10496000B3F5B47F13B2A8BF0021B3F5B47FA8BFDD
:10497000002240F2DC07AAF84C0000B2C2F20007A5
:10498000AAF84E1037F91000B5F84010AAF85020D8
:104990006A8E084444F6D3565043C1F2620640F290
:1049A000706450FB06F0C2F20004C11194F82D208F
:1049B00001EBD07046F267685043C6F2666850FB60
:1049C00008F0810801EBD07080B201F0B5FBBAF9B4
:1049D0004E00B5F8401037F910006A8E0844504375
:1049E00050FB06F0C11194F82D2001EBD07050431C
:1049F00050FB08F0810801EBD07080B201F0A2FBFF
:104A0000BAF95000B5F8401037F910006A8E084422
:104A1000504350FB06F0C11194F82D2001EBD070EB
:104A2000504350FB08F0810801EBD07080B201F0D8
:104A30008FFBE17E41F65832B2FBF1F340F22A32AD
:104A4000BAF83C00B2FBF1F730217822009700F071
:104A5000A3FAE88780B2FEF7B9F9E88F4FF4167130
:104A6000B1FBF0F04E46AAF85C00FFF7B3BB00BF05
:104A7000013003B20131B3F5B47F0BB202F1010290
:104A8000A8BF0020B3F5B47F13B2A8BF0021B3F5CF
:104A9000B47FA8BF002240F2DC06AAF84C0000B2A6
:104AA000C2F20006AAF84E1036F91000B5F8401010
:104AB000AAF850206A8E084444F6D3585043C1F2F5
:104AC000620840F2706750FB08F0C2F20007C111A3
:104AD00097F82D2001EBD07046F267695043C6F27B
:104AE000666950FB09F0810801EBD07080B201F0DB
:104AF00023FBBAF94E00B5F8401036F910006A8E63
:104B00000844504350FB08F0C11197F82D2001EBE9
:104B1000D070504350FB09F0810801EBD07080B297
:104B200001F010FBBAF95000B5F8401036F910004A
:104B30006A8E0844504350FB08F0C11197F82D20AD
:104B400001EBD070504350FB09F0810801EBD070AD
:104B500080B201F0FDFABAF83C00C82804D9502010
:104B6000AAF84C40E88700E0E88F43F20006C4F260
:104B70000006FEF72BF9BAF84C0000287FF42AABA8
:104B80000120AAF81200A87241F2240042F2283152
:104B9000C4F200002965CAF87810CBF81010016043
:104BA00040F27060C2F20000407F1421CBF8081080
:104BB0008AF80E4000281CBFE88DAAF83000A97BB7
:104BC000E87A01291ED10130C1B20729A87422BF99
:104BD0000120A8748AF80B0000F001001EE000BF5D
:104BE00000F076FCBAF85A0042F63441C4F20101F2
:104BF000C1E90000886001208AF80E00AAF85C4034
:104C0000FFF7E8BA01380106A87404D10620012193
:104C1000A8748AF80B10012121EA00006873EFF3F1
:104C2000108072B69AF80E0010B9A87CFDF768F9EA
:104C300062B6FDF731F9DAF87800DBF8041001F517
:104C4000FA71884284BF0120A872A87C296D0BEB01
:104C500040008AF81D408AF81A404182FEF7F6FDAE
:104C6000FFF7B8BAFDF774F842F634410020C4F2F9
:104C70000101AAF81600CAF83A0008604860886086
:104C800000F0D8FC40F26C50C2F200004FF480718A
:104C9000FCF705FBFCF790FE10B540F23854C2F269
:104CA000000440F27061C2F2000120463022FCF79D
:104CB000B1FA20463021FEF7FBFD84F8300010BD2C
:104CC00010B540F23854C2F200042070080ADDF832
:104CD00008C06070100AE070180A60714FEA1C206A
:104CE000A170E071204609212271A37184F808C0E7
:104CF000FEF7DEFD607210BD2DE9F04F81B040F28D
:104D0000104CC2F2000C9CF8051039B19CF80A1046
:104D1000012905D100228CF80A204DE000224BE049
:104D2000BCF81A10BCF8182001318CB2ACF81A107B
:104D3000BCF8161001320131282CACF81820ACF860
:104D4000161013D340F2C241C2F20001B1F90010B3
:104D500041F27B4251438A0C02EBD172062161F38E
:104D60001F220021ACF81A1026E000BF92B2C82A18
:104D700014D340F2EA41C2F20001098844F2AF7252
:104D80004A43A1EB1241490801EB12410A090421EF
:104D900061F31F220021ACF818100DE089B2C82978
:104DA0004FF0000208D340F2B341C2F2000109788B
:104DB000ACF8162001F500729CF8081041B19CF87F
:104DC000090000218CF8081038B94FF4606209E03E
:104DD0009CF80910002900F0A98000208CF8090037
:104DE00040F6FF62012190B28CF80A10010981EAB5
:104DF000102141400F2424EA010141EA0014CCF8BB
:104E0000204046F69A54C0F60004C0F30313020A89
:104E100014F803B0A65C4FEA8B2343EAC63740F28E
:104E2000D40300F00F00C2F2000314F8008014F85D
:104E300001E0187840F23471C2F20001009001EBF9
:104E40008003802020EAC60A06F008068AEA0616D1
:104E500000EA97214EEA4819714000EA572549EACD
:104E600007044D4000EA1727CCF824406F400BF0B0
:104E7000100C87EACC0C0BF00802C3E9036103F1C4
:104E800014018CEA021281E8A01000EA54111A629F
:104E900082EA010C00EA1412C3E9010A82EA0C0258
:104EA00000EAD400504008F0100780EAC70708F075
:104EB000080687EA061609F0800526F07F0465409B
:104EC00009F0400485EA440409F0200184EA8101E4
:104ED000C3E90B070EF01000C3E90F4181EAC000DF
:104EE0000EF00801C3E909C280EA01110EF00402C4
:104EF00081EA4212C3E90D650EF0020722F07F0637
:104F000086EA87174FEACE1603F1440CF6B28CE816
:104F1000870040F23471009A7E400020C2F2000106
:104F20005E6541F8220001B0BDE8F08F11047FF406
:104F300059AF40F2A641C2F20001097800294FF0B2
:104F4000000108BF4FF6FF70B1EBD03F12D1B1EBBB
:104F5000903F11D1B1EB503F10D1B1EB103F0FD1C9
:104F6000B1EBD02F0ED1B1EB902F0DD1410A18BF6C
:104F700001210AE0072108E0062106E0052104E0FE
:104F8000042102E0032100E00221C84040EA412060
:104F9000CCF81C102AE7000010B5844602988C4516
:104FA00018DD1446864600BFA4457046A8BF10BD54
:104FB000834215D022460C44641000EB030EA1423C
:104FC0004FEA6E0E0ED0A445EEDD611C8C45734693
:104FD000E7DC00E09E469445B8BF704610BD00BFB8
:104FE000184610BD704610BD40F20040C4F20100EA
:104FF000016821F4001101604FF400114161704714
:10500000B0B54EF60C5ECEF2000EDEF800304FF07A
:10501000FF35C3F3022383F00704042C28BF0424C4
:10502000033B05FA04F438BF0023A1434EF2001CF1
:10503000994005FA03F3CEF2000C9A43114300F0B5
:105040000F0200EB0C030901043A03F5407300283A
:10505000724448BF02F10C03197048BFB0BD00F0A4
:105060001F01012202FA01F1C0F342104CF8201096
:10507000B0BD00002DE9F04381B042F62848C4F2EB
:10508000010841F28730C8F80400EFF3108072B6CF
:1050900040F26950C2F20000007843F200094CF679
:1050A000CD447925C4F200094AF6AA27CCF6CC44AF
:1050B0000A26C8E90300C8F8140000BF023DA5FB9A
:1050C00004010809C9F80070FCF71AFF06EB550047
:1050D000C8F800000A20FDF797FE022DEED8FCF775
:1050E00037FE002040F23202C8F80000C2F200028F
:1050F00040F2D8411288C2F200010880C8F80420AA
:1051000062B601B0BDE8F0832DE9F04F81B042F600
:10511000284543F200070320C4F20105C4F200074A
:10512000FCF7EEFE40F2D84440F2706800264AF6E2
:10513000AA29C2F20004C2F200084FF0000B4FF09F
:10514000000A07E00AF1010A0BF104000BF1020B5F
:105150007E285FD2C7F8009008EB0B0191F834006D
:105160002680FF28EED091F835205FFA8AF1002AD8
:1051700042D04FF47A6326463C46F72712FB0732AB
:105180004DF6C003C0F2A703B3FBF2F248F2A063EE
:10519000C0F20103C1EBC111B3FBF2F300EB41001C
:1051A00048F21F515843C5F2EB11A0FB010141F633
:1051B0000030C0F2B700B0FBF2F00A222A6080B2E1
:1051C00040F269526860C2F20002127827465043EA
:1051D0004CF2D512C0F2D102A0FB02021009C5E9BF
:1051E00003006861C1F34F1034460026FDF70CFE42
:1051F0004FF0000AA8E700BFC1EBC11100EB41006E
:105200004FF0000AC5E903AAC5F814A0FDF7FCFD9C
:105210009AE700BFFCF79CFD002040F232012860B5
:10522000C2F200010988696020804AF6AA2038602D
:1052300001B0BDE8F08F000010B542F62844C4F27A
:10524000010441F2873060602820206040F26950FC
:10525000C2F200000078C4E9030060610220FCF79C
:105260004FFE9620FDF7D0FD43F20000C4F200008F
:105270004AF6AA210160502020609620FDF7C4FD67
:10528000FCF766FD002040F232022060C2F200020C
:1052900040F2D8411288C2F200010880626010BD5D
:1052A00010B542F62844C4F2010441F28730606030
:1052B0003220206040F26950C2F200000078C4E958
:1052C000030060610220FCF71BFE9620FDF79CFDA9
:1052D00043F20000C4F200004AF6AA2101601E2039
:1052E00020609620FDF790FDFCF732FD002040F293
:1052F00032022060C2F2000240F2D8411288C2F2AB
:1053000000010880626010BD10B5EFF3108072B626
:1053100042F62844C4F2010441F28730606043F24F
:105320000000C4F200004AF6AA210160502020606B
:1053300040F26950C2F200000078C4E903006061E5
:105340000320FCF7DDFD6420FDF75EFD46202060B4
:105350006420FDF759FD282020606420FDF754FDEE
:10536000FCF7F6FC002040F232022060C2F200029C
:1053700040F2D8411288C2F200010880626062B631
:1053800010BD000070B542F62844C4F2010441F299
:1053900087306060EFF3108072B643F20005C4F20C
:1053A00000054AF6AA263C202E60206040F2695093
:1053B000C2F200000078C4E9030060610120FCF73C
:1053C0009FFD4B20FDF720FD502020604B20FDF776
:1053D0001BFD5A2020604B202E60FDF715FDFCF7C9
:1053E000B7FC002040F232022060C2F2000240F21C
:1053F000D8411288C2F200010880626062B670BDB6
:1054000010B5EFF3108072B640F27060C2F2000087
:1054100090F8300042F62844FF28C4F2010403D07B
:10542000FFF772FE2CE000BF41F28730606040F26F
:105430006950C2F200000078C4E9030060610320F3
:10544000FCF75EFD37202060C820FDF7DDFC05205D
:10545000FCF756FD28202060C820FDF7D5FC06206B
:10546000FCF74EFD19202060C820FDF7CDFCFCF7AD
:105470006FFC40F2D8410020C2F200012060088099
:1054800040F23200C2F200000088606062B610BDD7
:1054900010B540F26A54C2F200042078022809D004
:1054A000012803D1FCF718FF00202070BDE8104050
:1054B00000F0B2B940F20000C2F20000B0F85000B3
:1054C00000EB400080B2FFF717FC0020207010BDF9
:1054D000B0B54FF09040012100224FF480634FF4AB
:1054E0008064FEF7CFFA2825C4F600054FF09040FF
:1054F000012100224FF400732C604FF40074FEF77A
:10550000C1FA4FF09040012100224FF480732C60CB
:105510004FF48074FEF7B6FA2C6005F576742046D9
:10552000022100220223FEF7ADFA204602210022CA
:105530000123FEF7A7FA4FF09040022100228023BA
:10554000BDE8B040FEF79EBA012AB8BF704770B5FB
:10555000042A02F0030C01D2002215E04FF6FC737E
:10556000C7F6FF7302EA030E431C00228D5C9E18EF
:105570008C1806F8015C65789D54A5780432757026
:10558000E4789645B470F1D1BCF1000F0FD0535CB4
:10559000BCF1010F83540AD0531C13F801E0BCF195
:1055A000020F00F803E002D00232515C8154BDE8E2
:1055B00070407047B0B54425C4F20205286840F237
:1055C0000044C4F200042860204601F0A1F9412003
:1055D00040F2D501A061C2F200010B2009782062DF
:1055E0004FF6FF70A162E0626069002140F00100A7
:1055F000606140F2C970C2F20000017004F1340031
:105600006162A86040F26C50C2F20000E86040F2B3
:105610007C00C2F2000000786860E06840F400702E
:10562000E060206840F00100206040F68B102860A8
:10563000B0BD000040F22440C4F2000000218160AF
:105640000160704740F20000C2F20000C26C40F2FC
:105650007060C2F20000C021AFF300802DE9F04F6E
:1056600003AF85B08346C81701EB90704FEAA008DE
:1056700020F00300073020F007009246ADEB000554
:105680008946AD4628464146FBF709FEB9F1040FAD
:1056900038DBA8F10100032808F0030C02D2002136
:1056A00019E000BF4FF6F071C7F6FF7101EA880EEE
:1056B000002300215BF803400BEB0300EA18EC50D9
:1056C00044688668C06810339E4501F10401C2E950
:1056D0000146D060EED1BCF1000F13D05BF8212061
:1056E000BCF1010F45F821200CD04A1C5BF8223098
:1056F000BCF1020F45F8223004D0881C5BF8201062
:1057000045F8201047F8148CFDF786FF5FEA8A50B1
:1057100002D15046FDF7B8FE002000BF47F8180C34
:1057200057F8180C57F8141C884211D257F8180C67
:1057300057F8181C0AEB800055F82110FDF77CFF84
:105740000320FDF791FE57F8180C0130E6E700BF83
:10575000A7F10C04A546BDE8F04FFDF78BBE000095
:10576000B0B54425C4F20205286840F2004440F078
:105770001000C4F200042860204601F0C9F860203F
:10578000A0610320206240F27E40C2F20000007857
:105790000121A0624C20E06240F2C970C2F2000018
:1057A0000170606940F00100606104F13400A8609C
:1057B00040F23470C2F20000E86040F2D400C2F25D
:1057C0000000007817306860286840F00200286008
:1057D000286840F008002860286840F00100286030
:1057E000E06840F40070E060606C40F40040606489
:1057F000206840F001002060B0BD00001C21C4F210
:1058000002010A6822F001020A604860086840F05C
:1058100001000860704700002DE9F04182B040F2BD
:105820007066C2F20006B07C40F2944440F2000878
:10583000C2F20004C2F2000890B3207E96F826104F
:1058400090B3E08F002900F0CD81B0F5836FC0F0F8
:10585000F58040F24A41884256D398F80E10727C87
:10586000914240F0D980D8F85000B8F824200027A1
:105870009042B4F840204FF0000092B288BF01205F
:10588000C82A4FF0000238BF0122104240F0B48015
:10589000E07C002840F0B0800020E087BCE000BF42
:1058A000E08FA08617E200BF98F80520E08F4FF444
:1058B0007A775300002907EB420119D081425CD26C
:1058C00098F80E20777CBA4246D1E7784FF0000C6A
:1058D0004FF0010E002FA4F834C084F80EE04CD035
:1058E000C2F1010288F80E2084F80EC036E000BF35
:1058F00081420DD3C3F57A72824200F21B8182424B
:1059000040F2608165E100BF0127002194E000BF03
:1059100098F80E20737C9A4240F0FA80D8F8500034
:10592000B8F8243000279842B4F840304FF0000017
:105930009BB288BF0120C82B4FF0000338BF012362
:10594000184240F0CF80E07C002840F0CB804FF43C
:105950007A70E087DCE000BFA27B72B90022E270BF
:1059600040F2FF774FF4FA622F230097FFF714FB02
:1059700098F80510A086E08F4B00C3F57A7282423A
:1059800027D9717C98F80E70C1F10105BD420DD187
:10599000E5784FF0000C0127A4F834C0A773C5B117
:1059A00088F80E1084F80EC002E000BFA17B81B918
:1059B00000212F2740F2FF73E1700097FFF7ECFA08
:1059C00098F80510A086E08F4FF47A724B00A2EB96
:1059D0004102824200F2FD8003F57A718142C0F0FB
:1059E000F880A17B00200029A08600F0F280A0733F
:1059F0000120E070EDE000BFC1F1010088F80E0069
:105A000040F21050C2F200008760012088F80A00BE
:105A1000FFF7EAFAE08F67724FF4FA61009140F203
:105A20004A4140F2FF7200230027FFF7B5FA98F8C9
:105A300008200146E08F891AA186A773A0F13001E2
:105A400089B2C9087C2945D862281FD3717C98F88F
:105A50000E20C1F1010393422CD1D8F85000B8F8C0
:105A6000242000279042B4F840204FF0000092B26A
:105A700088BF0120C82A4FF0000238BF012210421F
:105A80000AD1E07C40B90020E08713E00020A08626
:105A90000120A0731FE100BF40F21050C2F20000CD
:105AA0008760012088F80A0088F80E10FFF79CFA3A
:105AB000E08F67724FF4FA610091622140F2174261
:105AC00000230025FFF768FA98F80810A573401A1C
:105AD000A086E08F2F2800F2FE800020A086607252
:105AE000A073F8E0C2F1010088F80E0040F21050F7
:105AF000C2F200008760012088F80A00FFF774FAFC
:105B000098F80510E08F4FF47A72677202EB41014A
:105B100040F2FF774FF4FA622F230097FFF73CFA29
:105B200098F80510A086E08F4B00C3F57A72824288
:105B30007FF6E5AE717C98F80E30C1F101079F4207
:105B40002ED1D8F85000B8F8243000279842B4F885
:105B500040304FF000009BB288BF0120C82B4FF0AF
:105B6000000338BF0123184206D1E07C20B94FF46E
:105B70007A70E08714E000BF40F21050C2F20000DB
:105B80008760012088F80A0088F80E10FFF72CFAC9
:105B900098F80510E08F4FF47A726772A2EB410219
:105BA0002F27002140F2FF730097FFF7F5F998F8CF
:105BB0000510A086E08F4FF47A724B00A2EB4102F1
:105BC000824206D803F57A71814222BF0020A08666
:105BD0006072207E00287ED096F82610E08F002983
:105BE0007FF433AEB0F5836F35D398F80E10727C26
:105BF000914229D1D8F85000B8F8242000279042CB
:105C0000B4F840204FF0000092B288BF0120C82AAB
:105C10004FF0000238BF0122104205D1E07C18B9D4
:105C20000020E08710E000BFC1F1010088F80E00FD
:105C300040F21050C2F200008760012088F80A008C
:105C4000FFF7D2F9E08F677298F80810C1EB4001B6
:105C5000A1F60101A186A0F1300189B2C9087C2911
:105C600034D8717C98F80E20C1F10103934227D1FA
:105C7000D8F85000B8F8242000279042B4F840200B
:105C80004FF0000092B288BF0120C82A4FF00002F6
:105C900038BF0122104205D1E07C18B90020E0870E
:105CA0000EE000BF40F21050C2F2000087600120F9
:105CB00088F80A0088F80E10FFF796F9E08F6772EF
:105CC00098F80810C1EB40013139A1862F2802D87D
:105CD0000020A0866072607C98F8071088420BD97B
:105CE000B07D48B1FCF734F8FFF77EF90020A087BB
:105CF0006620607456E000BFF07C28B1A08E1D289D
:105D00002AD80021A1873BE02079002848D02078BC
:105D1000002800F08580D8E91113A08E00912F2172
:105D200040F2FF7240F2FF77FFF736F948F2007158
:105D3000C0F29331F27E91FBF0F05108A28E90FBFD
:105D4000F1F02E2A208500F281800020A087C8F87B
:105D50005400A06626E000BF1E2801D11E200FE0DF
:105D600096F8281001EB81018A00824208D9A02709
:105D70001E212F230097FFF70FF90146A08EC1E7E0
:105D800096F8281001EB8101890081420AD840F27F
:105D9000FF7740F2FF72A0230097FFF7FDF800E0C5
:105DA000A08EA087E07C002840F01581A07D00280F
:105DB00000F01181F17CA08F01EB81022F2707EB0E
:105DC0000212824200F2B280A07C58B1A08FB8F8D3
:105DD0002C30002900F09B8028334FF4FA6589218C
:105DE00098E000BFFBF7B4FF98F80A00002840F0E5
:105DF0008280A07C002840F07C8098F80E1098F8F3
:105E00001200012936D10130C1B2072988F81200E9
:105E100022BF012088F81200E07200F0010036E095
:105E2000A06E48F6AD31C6F6DB0150FB01F0011360
:105E300001EBD07081B2302998BF302110F4784F37
:105E400018BF40F2FF71A187ACE700BFA06E48F613
:105E5000AD31C6F6DB0150FB01F0011301EBD07050
:105E600081B2302998BF302110F4784F08BF0F4617
:105E7000A78797E70138010688F8120004D10620A9
:105E8000012188F81200E172012121EA000088F85E
:105E90000D00EFF3108072B6A07B18B998F81200CD
:105EA000FCF72EF862B6FBF7F7FF40F21050C2F293
:105EB0000000A16F426802F5FA72914284BF01218D
:105EC00088F80A1000216177A17698F81210D8F8A6
:105ED000502000EB4100428242F21070C8F850009E
:105EE00041F22400C4F2000041F288310160012037
:105EF000A074FDF727FA0120A074B8F82800F17CFF
:105F00002086A08FB8F82C3000297FF465AF4FF4BD
:105F1000FA652F2140F2FF720095FFF73DF896F8E1
:105F200026106086002904BF0020A073F07CA18F9A
:105F300000EB800007EB001088424AD9A07A0528C0
:105F400012D8DFE800F013030F070B03FFF7A8F9DF
:105F50000AE000BFFFF78EF806E000BFFFF712FA75
:105F600002E000BFFFF768F90020A072307D002832
:105F700060D0A07C00286FD098F81200B8F81810F4
:105F8000C0EB001001EB8000A0F13C010AB2B2F5B9
:105F9000B47FA8BFA0F5D27101F1770002B2A4F8D6
:105FA0004C10B2F5B47FA8BFA1F1F100A4F84E00E7
:105FB00001F1EF0002B2B2F5B47FF27CA8BFA1F10B
:105FC0007900012AA4F8500004BF0120E0740020E9
:105FD0006086A07B10B102B0BDE8F081A08F2F28B1
:105FE000F9D340F21051C2F20001727F89680F2389
:105FF00023FA02F291420BD2618EB8F82820914226
:106000003CBF62861146B8F82A20914288BF62865A
:106010002F28E0D0E06E0128DDDB41F25972618E5D
:10602000CDF2B712A0FB020201EB5230608602B043
:10603000BDE8F081A17C00206086A1BB012188F829
:106040000A10317F40F21052C2F20002906029B370
:10605000FDF7B6FB27E000BF012088F80A00307F7B
:1060600040F21051C2F2000100228A60627588B1CC
:1060700001287FF481AFF07C00287FF47DAF96F893
:106080002900C82141430A28618439D3FDF798FBD0
:1060900072E700BFFBF75CFE6EE700BFA07B002845
:1060A00008BFFBF755FE96F82610A07B002918BF05
:1060B00000283FF48FAF207EE18F48B94FF47A700B
:1060C000FDF7CEFB217E00F57A706084F9B1E18F97
:1060D000A1F13000C0087C2802D8002060841DE0B7
:1060E000B1F5836F12D34FF4FA6708464FF483611A
:1060F00040F2494200230097FEF74EFF608406E01D
:10610000FFF7E6F90120A07336E700BF608C80B28C
:10611000B0F5E16F02D3FDF753FB5AE7FFF7D8F96B
:1061200057E7000040F20040C4F6000002210122BF
:106130001023FDF7B3BC000042F63441C4F2010164
:106140000860704742F63841C4F2010108607047A8
:1061500042F63C41C4F20101086070470B2828BF99
:106160000B2040F269514000C2F2000108707047F4
:1061700080B542F20000C4F2020040F25311016007
:10618000FCF7D4FD00200121FCF7A2FC0120FCF764
:106190006FFD0128FAD100201D21FCF79FFD022090
:1061A0000121FCF795FC00BF1920FCF761FD0128D7
:1061B000FAD10020FCF756FC0020FCF76FFC002011
:1061C000FCF75EFC0120FCF777FC0220FCF7ECFDFD
:1061D000FCF7F4FD0228FBD10020FCF76DFCBDE8C4
:1061E000804000F001B80000B0B541F2040441F273
:1061F0000025C4F20204C0F27A05FCF7DFFD022894
:106200000CD000284BD1206D800548D5E06A800174
:1062100044BF46F60045C0F2DC2540E02068A16A94
:106220004FEA104C002921D421682268890CC2F35E
:106230004172130101F00F01581C0F29034618BFCA
:106240000223002A18BF03465FEACC7003EB01006B
:1062500004D02168890301D4454320E040F60011B1
:10626000C0F23D0100FB01F519E000BFA06AA36A7E
:10627000C0F3031EA06A40F60011C0F23D01C3F353
:1062800008235FEACC7200F0070003D02268920373
:1062900058BF294659430EFA00F0B1FBF0F540F221
:1062A000AC30C2F200000560216804A2C1F3031102
:1062B000515C25FA01F10160B0BD00BF0000000093
:1062C000000000000102030406070809F0B587B0CA
:1062D0000E20C0F218000121FCF7D8FC1220C0F2F9
:1062E00014000121FCF7D2FC4FF4A0100121FCF7AF
:1062F000CDFC40F20010C0F2021040F200440690C3
:106300004020C4F60004059005A92046FDF77CFB5B
:106310002046062100220027FDF7D4FB1C25C4F2ED
:1063200002052846FCF7EEFF6E463046FCF79CFF60
:106330003120C0F20010CDF80A001020ADF808009E
:1063400040F2385043F60004C2F20000C4F20104E7
:106350000190201D009028463146CDF80E70FCF7C4
:1063600093FF20464FF4E1310022002300F018FC97
:106370002046012100F06CFC2046012100F054FC75
:106380002046012100F05AFC2046012100F0F4FBD8
:106390002046012100F0FAFB0A2003210022FEF72B
:1063A0002FFE07B0F0BD00002DE9F04140F294440B
:1063B000C2F20004608EA18DA4F84000481CA18C9C
:1063C000A085481CB4F85210A084481CE18CA4F8A5
:1063D0005200481CA17D40F270680029C2F20008FA
:1063E000E0844BD1207A002848D1E07D002845D0B8
:1063F000A08E18B10020A4F854003FE0B4F8540077
:1064000044F62162013081B29142A4F8540035D3A0
:10641000608F1F2824D398F8240001210128A1753A
:1064200022D1B4F8560041F6D471C0F2B101A0FBFC
:106430000112B0F5B97F227218D343F2000700268B
:10644000C4F200074AF6AA25FEF75EFF6420FCF7B7
:10645000DBFC3D60207A01368642F5D306E000BFC2
:106460000020E075C7E700BFFEF74EFF207E617E8B
:10647000C0B2084304BF002088F8260098F81F0027
:1064800040F20006C2F20006A0B1F278B4F858104B
:106490001044013100EB80006FF0130202EB80002A
:1064A0008AB29042A4F8581004D2012060730020F0
:1064B000A4F85800E07C38B1B4F844000130A4F8E6
:1064C0004400BDE8F08100BFB07AC0B3A07CB0B397
:1064D000FEF78AFDFDF7C8F9717B59B158B1607DAF
:1064E000F27B0130C3B29342607512D8A07E30BBFC
:1064F000607F13E030B1607F0130A27E6077F2B937
:106500000BE000BF607DF27B0130C3B29342607547
:106510000AD90020A27E60778AB941B1317CC0B22D
:10652000884208D80BE000BFA07E40B9607F717C34
:10653000C0B2884203D90120A07600F093FBE08C22
:106540001528C0F09580627994F812C001200021CE
:10655000002A2073E18418BFBCF1000F45D0B4F9C4
:106560002E1098F82C206FF0C70312FB031240F294
:106570008401C2F200010F69D1E901E30A6003FB63
:1065800002730F6AC868BB42A8BF3B467F42BB424A
:10659000D8BF3B468F690B61D71B07FB00F507FB94
:1065A00000304B6A0EFB02004D618A619842A8BF21
:1065B00018465A429042D8BF1046C86147F253412C
:1065C000C9F2247150FB01F00113728C01EBD07001
:1065D0001044B18D02B28A42B8BF084600B2B0F58D
:1065E000FA6FA8BF4FF4FA60708498F81D00002875
:1065F00018BFBCF1000F35D0306DF18A421A40F25D
:106600008401C2F200018B6BD1E90BE08A6200FBCE
:1066100002308B6C4D6B9842A8BF18465B42984283
:10662000D8BF18460B6C8863D31A03FB050003FB25
:1066300005F70EFB0200CB6CCF630A649842A8BF3B
:1066400018465A429042D8BF1046E26E48644EF255
:1066500060311044C0F216018842B8BF014621EAF9
:10666000E170E0662079002818BFBCF1000F21D14D
:10667000B4F85200217F88425DD940F21050C2F236
:106680000000806800219628A4F852100CD3208EB8
:10669000952809D9A06FB0F5FA7F65D97078707226
:1066A000A07D00284CD164E030787072A07D002875
:1066B00046D15EE040F21050C2F20000D0E902C1C3
:1066C000228D736E891AD6E91672716502FB01324A
:1066D000736F356E9A42A8BF1A465B429A42D8BF82
:1066E0001A46F36E7266CB1A03FB052203FB05F014
:1066F000B06607FB0120B26FF1669042A8BF10465A
:1067000051428842D8BF0846A16E3067084445F61A
:10671000F001C0F238118842B8BF014621EAE170A9
:10672000BCF1630FA0669CBF00207066B4F85200F5
:10673000217F8842A1D8208EA4F84000A07DC0B15E
:10674000A17CB1B1A18F302913D3B4F84010308EA1
:1067500044F6D3524143C1F26202A1FB021201216D
:1067600001EBD21139E000BFB0787072A07D002833
:10677000E6D1A17B61B1308E618C44F6D3524143A6
:10678000C1F26202A1FB0212A0EBD21125E000BF10
:10679000C0B198F81C00022814D10220FBF7B0FB0E
:1067A00098F80C10308E41F26F224143C0F2830200
:1067B000A1FB021222F0030101EB92013C2202EB49
:1067C00041010AE0B4F84010308E44F6D352414300
:1067D000C1F26202A1FB0212D109B4F84020A4F870
:1067E0005A10228642F62C42C4F20102106088B28E
:1067F000C2E902001061B4F844000130A4F844007A
:10680000BDE8F081062988BF7047DFE801F005295F
:10681000151F0B333D0000BF016A62F300010162E6
:10682000704700BF016A02F0010221F4807141EA61
:1068300002210162704700BF016A02F0010221F0EB
:10684000100141EA02110162704700BF016A02F0C3
:10685000010221F0400141EA82110162704700BF4C
:10686000016A02F0010221F0040141EA82010162A1
:10687000704700BF016A02F0010221F4806141EA21
:1068800082210162704700BF016A02F0010221F417
:10689000805141EA0231016270470000062988BF39
:1068A0007047DFE801F0052917290F29210000BFF3
:1068B000816902F0010221F0080141EAC20181610F
:1068C000704700BFC16902F0010221F0080141EAEE
:1068D000C20110E0816902F0010221F4006141EA85
:1068E000C2218161704700BFC16902F0010221F439
:1068F000006141EAC221C16170470000026801F0F5
:10690000010122F0800242EAC111016070470000DB
:1069100010B542F6FF31C4F20101884216DD44F29F
:10692000FF31C4F201010B248842C0F20C0425DCC3
:1069300042F60041C4F20101884239D044F200011C
:10694000C4F2010188423DD1053431E040F20041FA
:10695000C4F20001884221D041F20001C4F20001DA
:10696000884221D042F20001C4F20001884229D1BC
:106970000120C0F21000C41D1AE000BF44F2004123
:10698000C4F2010188420DD044F60001C4F20101B5
:10699000884218BF10BD07340AE000BF0124C0F2CE
:1069A000100405E0063403E00120C0F21000C41C0E
:1069B00020460121FCF77EF920460021BDE8104069
:1069C000FCF778B910BD0000B0B540F2AA44C2F29D
:1069D000000440F2A3402178C2F2000000780029B0
:1069E00018BF00280ED140F2AB41C2F20001097875
:1069F000012917D000295FD1FCF7F0FABDE8B040BB
:106A0000FEF7D8BD40F2C970C2F200000078E8B1CC
:106A1000FEF7D0FD40F26A50C2F200000221017080
:106A2000B0BD00BFE0B140F2C970C2F20000007812
:106A300090B340F21C50C2F200000088FEF75CF9EF
:106A4000FBF74AFCBDE8B040FEF7B4BDFEF788FE98
:106A500040F26A50C2F2000001210170B0BD00BFD7
:106A600040F2AC45C2F200052878012803D1FBF7BB
:106A700033FCFEF79FFD40F2AD40C2F2000000780B
:106A8000012817D1FCF70CFF50B140F27C00C2F294
:106A90000000032101700BE0BDE8B040FEF760BECE
:106AA00040F27C00C2F2000002210170FBF7E4FE1C
:106AB000FEF780FD207808B1B0BD00BF40F2CE4C9B
:106AC0002878C2F2000CBCF8002040F27844C2F2F0
:106AD0000004F0B1607907281BD8062A19D3431C9B
