:020000040800F2
:10100000E80E0020D5110008ED150008BD150008F8
:10101000E9150008791400085119000800000000C3
:10102000000000000000000000000000E9160008B9
:101030009D15000800000000F1150008ED160008DD
:10104000EF110008EF110008EF110008EF11000880
:10105000EF110008EF110008EF110008A1150008BA
:10106000000000007D140008A9140008E514000821
:10107000DD120008EF110008EF1100080000000069
:1010800049180008EF110008000000000D180008C2
:101090002118000839180008EF110008EF110008A6
:1010A000EF110008EF110008EF110008F91800080F
:1010B00025190008000000000000000000000000EA
:1010C000EF11000800000000EF11000800F002F826
:1010D00000F070F814A696E8000CB244B344DA4568
:1010E00001D100F067F8BAE80F000FA696E83000CB
:1010F000A5EB040504EB0607AAEB0704A7F101071B
:101100004FEA15154FEA3414A4F10104AC4201D39F
:1011100000F050F813F0010F18BFFB1A43F0010361
:1011200000F001F8DBE71847486100006861000043
:101130000A444FF0000C10F8013B13F0070408BFFD
:1011400010F8014B1D1108BF10F8015B641E05D09B
:1011500010F8016B641E01F8016BF9D113F0080F50
:101160001EBF10F8014BAD1C0C1B09D16D1E58BFE2
:1011700001F801CBFAD505E014F8016B01F8016B19
:101180006D1EF9D59142D6D370470000704700001C
:101190000023002400250026103A28BF78C1FBD880
:1011A000520728BF30C148BF0B6070471FB51FBD35
:1011B00010B510BD00F058F81146FFF7F7FF02F028
:1011C00057FD00F076F803B4FFF7F2FF03BC00F020
:1011D0007DF800000948804709480047FEE7FEE720
:1011E000FEE7FEE7FEE7FEE7FEE7FEE7FEE7FEE7D7
:1011F00004480549054A064B70470000F1160008EF
:10120000CD100008E8080020E80E0020E80A0020C1
:10121000E80A00204FF0000200B5134694469646B7
:10122000203922BFA0E80C50A0E80C50B1F12001F9
:10123000BFF4F7AF090728BFA0E80C5048BF0CC0A7
:101240005DF804EB890028BF40F8042B08BF704705
:1012500048BF20F8022B11F0804F18BF00F8012B77
:101260007047704770477047754600F02BF8AE46E0
:1012700005006946534620F00700854618B020B5A2
:10128000FFF7B6FFBDE820404FF000064FF0000723
:101290004FF000084FF0000BAC46ACE8C009ACE8DA
:1012A000C009ACE8C009ACE8C00921F007018D46CF
:1012B000704710B50446AFF300802046BDE81040EB
:1012C000FFF781BF00487047C00300200149182084
:1012D000ABBEFEE7260002007047000041F224008A
:1012E00040F24851C4F20000C2F2000100680968EF
:1012F000B0EB510F08D940F21440C4F201004FF492
:101300000011016002F02EBA80B502F00FF940F230
:101310001D01C2F200010978884218BF80BD40F269
:101320001440C4F201004FF40011016080BD0000C0
:1013300040F26C50C2F20000818840F22E52C2F29C
:1013400000021180018840F23252C2F20002118084
:10135000408840F21851C2F2000108807047000036
:10136000F0B587B042F200444FF0904003210022D4
:101370004023C4F20104002702F026F94FF0904008
:1013800003210022082302F01FF94FF4A0100121CD
:1013900001F020FB0825C4F20205284601F014FEE6
:1013A00002AE304601F0C2FD0320C0F20010CDF8BD
:1013B000120040F26C50C2F20000039004F14C00A5
:1013C000029040F20110C0F20120CDF8160028462C
:1013D0003146ADF8107001F0B9FD2846012101F049
:1013E0009FFD0920C0F21800012101F0F3FA072047
:1013F00001F054FA01AD284600F0E4FA40F2011081
:10140000C0F2003001902046294600F0B9FA20468B
:1014100006210122032300F0FDFA204603210222C7
:10142000032300F0F7FA204610210322032300F0E3
:10143000F1FA012000F04CFC20460721012200F0C7
:101440001FFC2046012100F0D5FA2046012100F0C2
:10145000DBFA204600F0BAFA204600F0BDFA002878
:10146000FAD1204600F0BCFA204600F0BFFA00286E
:10147000FAD107B0F0BD0000FEE70000B0B50220D1
:1014800001F05CFD012818BFB0BD0424C4F20204C1
:1014900001252560FFF74CFF082001F04FFD0128D2
:1014A00008BF2560B0BD000010B51C242020C4F288
:1014B000020401F043FD012806D1102044F8180C65
:1014C000206820F001002060802001F037FD012815
:1014D00018BF10BD102044F8180C206820F001003F
:1014E000206010BD10B540F2E46040F2E541C2F268
:1014F0000000C2F200010978026804240029C4F245
:10150000020402F10101016010D04FF4805020600C
:10151000206C20F00100206405F06AFB40F21040CE
:10152000C4F201004FF40041016010BD4FF480404F
:1015300001F004FD012810D140F2E640C2F20000A3
:10154000007850B140F22040C4F20000016841F040
:10155000020101604FF4804020604FF4005001F020
:10156000EDFC01280FD14FF480502060206C20F05A
:101570000100206405F03CFB40F21040C4F2010081
:101580004FF4004101604FF4004001F0D7FC012806
:1015900004BF4FF48050206010BD00007047000071
:1015A00040F21440C4F201000168090458BF7047BA
:1015B0004FF40041016003F079BD0000FEE7000038
:1015C00043F20000C4F2000045F2555101604CF6B0
:1015D000CC410160032141604FF47A6181604AF699
:1015E000AA21016070470000FEE70000704700007C
:1015F0007047000070B544F20C40C4F2010001686D
:1016000040F2000521F001010160C2F20005A97F4E
:1016100095F8220040F2BC440129C2F200040DD129
:101620000130C1B2072985F8220022BF012085F8C8
:101630002200207700F001000DE000BF0138010614
:1016400085F8220004D10620012185F822002177A7
:10165000012121EA00006877EFF3108072B6E07F85
:1016600018B995F8220000F02FFC62B600F0E2FBFA
:1016700040F23856C2F20006306940F6C411884282
:1016800004D901206876002004E000BF687EB0FA2B
:1016900080F04009002195F8222084F82E1084F86B
:1016A0002B10B5F8561006EB4202D184B4F85E2038
:1016B00001EB41016B7A11448A08A5F856205A4380
:1016C000C1F3CE019309A1EB92110028B361A4F8F4
:1016D000541018BF01F098FCF06942F20F71884273
:1016E0009CBF0130F06170BD704700007047000082
:1016F0007047000010B50B20C0F21800012101F066
:1017000069F942F60044C4F2010440F6B830E062E0
:101710000020A06246F66800A0616820E0612046D3
:101720000021012205F0CEF920460221012205F018
:10173000C9F920460421012205F0C4F920460121FF
:1017400005F0F0F9606C3C2161F30700606411243E
:10175000C0F214042046012101F03CF9601C012173
:1017600001F038F940F20044C4F60004204602219A
:101770000022022301F028FF20460221002201233B
:1017800001F022FF4FF0904002210022802301F05F
:101790001BFF20460121022201F036FF20460021D6
:1017A000022201F031FF4FF090400721022201F0A8
:1017B0002BFF4FF09040022100224FF4806301F094
:1017C00003FF4FF09040022100224FF4007301F01C
:1017D000FBFE4FF09040022100224FF4807301F095
:1017E000F3FE4FF090400A21022201F00DFF4FF06E
:1017F00090400921022201F007FF4FF0904008219C
:101800000222BDE8104001F0FFBE000042F21000CD
:10181000C4F200004FF6FE71016004F0A1BE0000AA
:1018200044F21000C4F201004FF6FE7101604FF661
:10183000FD7101607047000044F21040C4F20100E5
:1018400000210160FFF7D6BE40F21040C4F2000054
:101850000168890744BF4FF6FD7101600168C9073F
:101860001CBF4FF6FE71016070470000B0B512203A
:10187000C0F21400012101F0ADF80120C0F21C00FB
:10188000012101F0A7F840F20044C4F6000420460C
:10189000022100221023102501F096FE204604218B
:1018A000012201F0B1FE4FF4A010012101F092F8E5
:1018B0004420C4F2020040F68A1101604EF20B404F
:1018C000CEF2000005704EF20010CEF200004FF490
:1018D0000061016040F20040C4F200004FF6FF7169
:1018E000C1628562016841F080010160016841F0D8
:1018F00001010160B0BD000080B543F60000C4F2F4
:101900000100102105F018FB3020C4F2020001682C
:1019100021F00101016003F08BFFBDE8804003F07E
:1019200053BC000080B544F20040C4F20000102116
:1019300005F002FB5820C4F20200016821F0010109
:10194000016003F075FFBDE8804003F03DBC00007E
:10195000FEE700004EF60C50BFF34F8FCEF20000B2
:101960000168042201F4E061C0F2FA5211430160FF
:10197000BFF34F8F00BF00BF00BF00BFFAE70000FA
:101980000A78436802F0010223F4807343EA0222DA
:1019900042604A78836862F3410383608A7883688F
:1019A00002F0010223F4006343EAC2228260C97894
:1019B000C26A013901F00F0122F4700242EA0151BA
:1019C000C16270474FF0807101607047816841F0DB
:1019D00008018160704700008068C0F3C000704754
:1019E000816841F004018160704700008068C0F3A5
:1019F00080007047826801F0010122F4807242EA9F
:101A00000121816070470000826861F300028260FA
:101A10007047000080B5112900F2A780DFE811F0BF
:101A200012007E0056006A00380092001401740013
:101A300026014C001E012E0042009C002400600084
:101A40001A008800D0F810C063F3020CC0F810C070
:101A50008BE000BFD0F80CC003F0070E2CF4E013AD
:101A600043EA8E4380E000BFD0F80CC003F0070EBD
:101A70002CF4E04343EA0E3376E000BFD0F80CC00C
:101A800003F0070E2CF0380343EACE036CE000BFEE
:101A9000D0F810C003F0070E2CF4E04343EA0E33F5
:101AA000036162E0D0F80CC003F0070E2CF4E07381
:101AB00043EA8E1358E000BFD0F810C003F0070EC1
:101AC0002CF0605343EACE6303614EE0D0F810C0BF
:101AD00003F0070E2CF4E07343EA8E13036144E035
:101AE000D0F80CC003F0070E2CF4603343EACE3379
:101AF0003AE000BFD0F810C003F0070E2CF460638A
:101B000043EA4E23036130E0D0F810C003F0070E23
:101B10002CF4600343EA4E53036126E0D0F810C072
:101B200003F0070E2CF0380343EACE0303611CE0F8
:101B3000D0F80CC003F0070E2CF4600343EA4E53B8
:101B400012E000BFD0F810C003F0070E2CF4603391
:101B500043EACE33036108E0D0F80CC003F0070E6F
:101B60002CF4606343EA4E23C360013A0F2A88BF16
:101B700080BDDFE802F009452D391B4B573F632735
:101B80005D1521510F3300BF426B61F304024263C4
:101B900080BD00BFC26A61F38E22C26280BD00BFF9
:101BA000026B61F35D62026380BD00BF426B61F353
:101BB0001852426380BD00BFC26A61F30402C26270
:101BC00080BD00BF026B61F3D332026380BD00BFF2
:101BD000426B61F38E22426380BD00BFC26A61F333
:101BE000D332C26280BD00BF426B61F3D332426325
:101BF00080BD00BF026B61F34912026380BD00BF6C
:101C0000426B61F34912426380BD00BF426B61F3D6
:101C10005D62426380BD00BFC26A61F34912C26265
:101C200080BD00BF026B61F30402026380BD00BF90
:101C3000026B61F31852026380BD00BF026B61F357
:101C40008E22026380BD00BFD0F810C003F0070EE3
:101C50002CF4E01343EA8E43036186E7D0F80CC00E
:101C600063F3020CC0F80CC07FE700BFD0F810C0CF
:101C700003F0070E2CF0E06343EA0E63036174E7A0
:101C8000836808294FEA414106D343F0007383601B
:101C900001F4602103E000BF23F0007383608368D8
:101CA00002F0010223F4602319438160816821F46A
:101CB000801141EA0251816070470000826801F0A2
:101CC000010122F4800242EA8151816070470000E4
:101CD00042F20841C4F201010A6800F0010022F456
:101CE000000242EAC050086070470000F0B581B0C1
:101CF0002825C4F6000505F576742046012100224A
:101D000002230126022701F05FFC4FF090400121E1
:101D100000224FF48063C5F800744FF4806701F02F
:101D200053FC20460121002201232F6001F04CFCCE
:101D30004FF09040012100224FF40073C5F8006479
:101D40004FF4007401F040FC4FF09040012100225C
:101D500080232C60802401F037FC4FF0904001215B
:101D600000224FF480732C604FF4807401F02CFC3F
:101D70002C6001B0F0BD000070B540F20405C2F265
:101D80000005287840F20044C4F6000400282046EC
:101D900006D002210022022301F016FC07E000BF5A
:101DA000012100220223022601F00EFCA6624FF060
:101DB0009040022100224FF4806301F005FC287856
:101DC00030B1204602210022012301F0FDFB07E093
:101DD0002046012100220123012601F0F5FBA66225
:101DE0004FF09040022100224FF4007301F0ECFB11
:101DF000287838B14FF0904002210022802301F072
:101E0000E3FB0CE04FF0904001210022802380256D
:101E100001F0DAFB4FF62840CFF6FF7025504FF067
:101E20009040022100224FF48073BDE8704001F021
:101E3000CBBB000040F22202C2F2000211781C204B
:101E40000429C4F2010001D0012902D1D521016089
:101E50001178052901D0022902D1E521016011780C
:101E6000062901D0032901D1C521016040F2485162
:101E7000C2F200010A68952A04D8026822F004021E
:101E800002600A68FB2A03D3016841F00401016083
:101E900040F21D01C2F200010A78B2FA82F2520940
:101EA0005205C0F8EC2309784905C0F8F0137047D3
:101EB000002818BF70471C20C4F20100026861F3BB
:101EC0000002026070470000F0B581B001380528BB
:101ED00000F2A281DFE800F00490426618CC00BF57
:101EE00040F20400C2F2000000782824C4F6000486
:101EF000002804F5767000F02581022100220223DB
:101F000001F062FB26E100BF2825C4F6000505F5B7
:101F1000767420460121002202230126022701F0C7
:101F200053FB4FF09040012100224FF48063C5F82D
:101F300000744FF4806701F047FB40F204002F600B
:101F4000C2F200000078002800F0BA80204602218A
:101F50000022012301F038FBBAE000BF2825C4F6B7
:101F6000000505F576742046012100220223012692
:101F7000022701F029FB4FF09040012100224FF48D
:101F80008063C5F8F0734FF4806701F01DFB2046B5
:101F90000121002201232F6001F016FBC5F8006427
:101FA0004CE000BF2825C4F6000505F576742046F0
:101FB0000121002202230126022701F005FB4FF038
:101FC0009040012100224FF48063C5F8F0734FF474
:101FD000806701F0F9FA40F204002F60C2F20000BD
:101FE0000078002800F0888020460221002201238A
:101FF00001F0EAFA88E000BF2825C4F6000505F5DF
:10200000767420460121002202230126022701F0D6
:10201000DBFA4FF09040012100224FF48063C5F8B5
:1020200000744FF4806701F0CFFA204601210022AE
:1020300001232F6001F0C8FAC5F8F0634FF090401B
:10204000012100224FF400734FF4007401F0BCFA38
:1020500040F204002C60C2F200000078E0B14FF0C2
:10206000904002210022802301F0AEFA1DE000BF63
:1020700040F20400C2F2000000782824C4F60004F4
:10208000002804F5767000F08D80022100220223E2
:1020900001F09AFA8EE000BF4FF09040012100223B
:1020A0008023802401F090FA2C604FF090400221B0
:1020B00000224FF4807301B0BDE8F04001F084BA13
:1020C000204601210022012301F07EFAC5F80064B8
:1020D0004FF09040022100224FF4007301F074FA97
:1020E0004FF09040012100228023802401F06CFAFF
:1020F00045F8104C19E000BF2046012100220123C1
:1021000001F062FAC5F800644FF09040022100220D
:102110004FF4007301F058FA4FF090400121002273
:102120008023802401F050FA2C604FF09040012170
:1021300000224FF480734FF4807401F045FA2C6054
:1021400001B0F0BD012100220223022501F03CFA7A
:10215000C4F800544FF09040022100224FF48063F5
:1021600001F032FA04F576700121002201230125E5
:1021700001F02AFA4FF09040012100224FF4007341
:10218000C4F8F0534FF4007501F01EFA4FF0904080
:102190000121002280232560802501F015FA2560A9
:1021A0002FE000BF012100220223022501F00CFADA
:1021B000C4F800544FF09040022100224FF4806395
:1021C00001F002FA04F576700121002201230125B5
:1021D00001F0FAF94FF09040012100224FF4007312
:1021E000C4F800544FF4007501F0EEF94FF0904040
:1021F0000121002280232560802501F0E5F944F8C3
:10220000105C4FF09040012100224FF480734FF496
:10221000807501F0D9F9256001B0F0BD2DE9F04FCE
:1022200087B040F2E451C2F200010A68D1F87CE0C4
:1022300040F22046AEEB0200C2F20006708183B28B
:1022400040F2AC40C2F2000007885809BB4230811E
:1022500040F2418140F26407C2F200073F88BB426E
:1022600080F03981D1E90176D1E90354BA1A01F13C
:10227000140C82424FF000029CE8081388BF012230
:102280000492AA1B82424FF0000288BF01220392EF
:102290001A1B82424FF0000288BF01220592A9EB6F
:1022A000080282424FF0000288BF012201F1240996
:1022B000069299E8F4030023A2EB0C028242A5EBFC
:1022C0000402D1F840C088BF012382424FF00005CC
:1022D000A7EB060288BF012582424FF0000288BFAB
:1022E000012202924A6CA9EB080484424FF00004D8
:1022F000A2EB0C0288BF01248242D1E912724FF096
:102300000006019488BF0126D21BD1E914478242FE
:102310004FF0000288BF0122A7EB040CD1E916742C
:102320004FF0000A8445A4EB070C88BF4FF0010A68
:10233000D1E9187484454FF0000CA4EB070488BF62
:102340004FF0010CD1E91A878442A7EB0804D1E9C8
:102350001C87896FA7EB0807AEEB010E4FF0000159
:1023600088BF012184424FF0000888BF4FF0010868
:1023700087424FF0000988BF4FF0010986454FF0B2
:10238000000E88BF4FF0010E84424FEAC10440F2B4
:10239000DC4B88BF0434874240F2E347C2F2000BB3
:1023A00088BF0234C2F200079BF800003F78C0B239
:1023B000384340F22047C2F2000707F14C0080E8A2
:1023C000020303990498396281EA0501F86180EA01
:1023D000030081EA020180EA06004FEA81013A64C3
:1023E00041EAC0000599029A796281EA020181EA14
:1023F0000A013D6340EA410506980199B86280EA06
:102400000100FE6380EA0C067444FB627A63C7F83D
:1024100044A0B963C7F848C0C7F858E00BD101F031
:102420008DF840B138790130C1B26529387124BFC7
:1024300001208BF800009BF80000002845EA060008
:1024400018BF84F00F04844242D107F11C0C9CE8B1
:102450000F10490241EA802040EA0220D7E90C65CA
:1024600040EAC31040EA8C10BC6B40EA461007F10A
:102470003C0640EA05104ECE40EAC40040EA810026
:1024800040EA420040EA030140F21250BB89C2F226
:10249000000000220280581C012EB88105D140F2B4
:1024A000DA40C2F2000001220270302916DB78788F
:1024B000A0B140F20C50C2F20000018040F2E8608E
:1024C000C2F2000000210170B97007B0BDE8F08FC2
:1024D000F8890130F88107B0BDE8F08F481E2E283A
:1024E0000CD840F20C50C2F200000022028040F2F0
:1024F000E862C2F20002C8B2117018E031B140F2D5
:10250000E860C2F20000007811E000BF387840F2C5
:102510000C51012804BF00207870C2F20001002095
:10252000088040F2E861C2F200010870B87000282B
:10253000D1D040F2DF41C2F2000109780029CAD1AE
:1025400040F2E341C2F2000109780029C3D0F978D2
:1025500088421EBFF8700021B970052805D3B978EC
:102560000131CAB2062AB970B5D3411E002514291B
:10257000BD7000F2A280DFE801F00B675F572BA06F
:10258000416F7D99A0851F4FA0A0A0A0A03313008C
:1025900040F2D741C2F20001012008708DE000BF77
:1025A00040F2C640C2F20000007840F21E01C2F2C2
:1025B00000010870152080E0397801204FF4606236
:1025C00078710129FA8008BF78700D2075E000BF8E
:1025D00040F2D741C2F20001052008706DE000BF53
:1025E00040F2C640C2F20000007840F21E01C0F185
:1025F0000100C2F20001087014205EE040F2C64003
:10260000C2F200000021017040F21E00C2F2000080
:1026100001210170072050E00020787140F6FF6032
:10262000F8800E2049E000BF40F2D741C2F200011D
:102630000420087041E000BF40F2D741C2F200011F
:102640000320087039E000BF40F2D741C2F2000118
:102650000220087031E000BF40F2C640C2F2000024
:102660000121017040F21E00C2F200000021017041
:10267000082022E040F2C740C2F2000000210170B1
:1026800009201AE002F0B2FF40F2C640C2F2000098
:10269000007840F2D742411C40F2E860C2F20000EC
:1026A000C2F200020078117007E000BF40F2C7409C
:1026B000C2F20000012101700A2040F68001C2F23E
:1026C0000001087040F2E860C2F20000057007B037
:1026D000BDE8F08F70B582B040F2E455C2F200055B
:1026E000D5E9000140F27652081AA0F2213140F2F9
:1026F000A0449142C2F2000418D86178E1B1E178B7
:1027000000296FD1A17840F2300600290CBF20814A
:1027100020890131C2F20006A170318880B200F038
:1027200001FF332836DB0020607054E040F208508F
:10273000C2F2000094E000BF40F2C741C2F20001C3
:10274000097899B140F23201C2F200010A88904240
:1027500076D940F23001C2F200010B88511C4FF4CF
:10276000FA661A4640F2E93372E000BF40F22E01E9
:1027700040F23002C2F20001C2F20002098812885F
:1027800040F2FF762F23009602F008FA3128B8BFF6
:10279000002060E03088D5E90012C0EBC000511A7B
:1027A0000844A178C0083329308014D34FF62A1189
:1027B0001938CFF6FF71308011FA80F000EBD0703D
:1027C00040F2E9614008C2F2000181F821000120D5
:1027D000E07002F075FBE07831882181E0B3D5E943
:1027E0000001081A40F2E1412279884240F22E01AC
:1027F000C2F2000107D80B880132C3EBC3031844AF
:10280000C00822710880D0B24C2825D30888002542
:10281000193008804FF61251CFF6FF7111FA80F08F
:1028200000EBD07040F2E9614008C2F2000181F88B
:102830002000657002F0DAFE257102F00DFB0BE05E
:1028400040F22E01C2F2000109884FF47A7600238B
:10285000009602F0A3F9206140F21250C2F200008B
:1028600040F20C51C2F2000140F2E40622690B88EA
:10287000C2F200063668D51AB5424FF00005058051
:1028800004DD9A190A8002B070BD00BF981AB042E8
:10289000C8BF9A1B0A8002B070BD000041F204015B
:1028A000C4F202010A6860F38F320A600A68800885
:1028B00060F31C720A60704741F20401C4F2020125
:1028C0000B6841F20022C0F27A02C3F38103F0B533
:1028D000DFE803F02A02360202600B6837A7C3F371
:1028E0000313FB5C47F25627DA4042600B68C0F6E0
:1028F0000007C3F30223FB5C22FA03F3C3600B68F7
:10290000C3F3C223FB5C0427DA4082600B680968CA
:1029100007EA9363C1F3813119442CA3595CB2FBDC
:10292000F1F10161F0BD00BF0B6D9B05D4D5CB6A01
:102930009B0144BF46F60042C0F2DC22CCE700BF58
:102940000B688C6A1F0C002C1ED40C680B68A40C3E
:10295000C3F341731D0104F00F046E1C0F2C3546A8
:1029600018BF0225002B18BF3546FB0705EB0403F3
:1029700004D00F68BF0301D45A43ADE740F60012FC
:10298000C0F23D025A43A7E78B6A8C6AC3F3031E69
:102990008B6A40F6001CC0F23D0CC4F30824FD070E
:1029A00003F0070303D00D68AD0358BF94460CFB3A
:1029B00004F20EFA03F3B2FBF3F28DE7000000001D
:1029C00000000000010203040607080902040608CB
:1029D000020C081041F2000200F01F034FF0010C3E
:1029E000C4F2020201290CFA03F14FEA10408358A5
:1029F00014BF23EA010119438150704741F20002DC
:102A000000F01F034FF0010CC4F2020201290CFA7E
:102A100003F14FEA1040835814BF23EA0101194320
:102A2000815070472DE9F04F87B040F2C140C2F2AB
:102A3000000000784EF21B444EF2001740F2300BBB
:102A400044F20048112540F2040A40F20016CEF28A
:102A50000004CEF20007C4F2020BC4F20008C0F278
:102A60001405C0F20C0A0528C0F2021604D006288C
:102A700073D007B0BDE8F08F0E20C0F2180001211E
:102A8000FFF7A8FF681C0121FFF7A4FF4FF4A01077
:102A90000121FFF79FFF069640F200464020C4F652
:102AA0000006059005A9304600F050FD304606218D
:102AB00000224FF0000900F0A7FD584600F084FA0C
:102AC0006E46304600F032FA4020C0F20010CDF8D9
:102AD0000A0040F27D50C2F20000019043F604006B
:102AE000C4F2010000904FF48030CDF80E0058463B
:102AF0003146ADF8089000F029FA08F5744646F61C
:102B0000A0013046C0F206010022002304F01EFAA4
:102B10003046012104F06EFA3046012104F074FAC7
:102B20003046012104F0EAF93046012104F0FAF9B7
:102B3000202020704FF000603860304640F20016D0
:102B400051460122C0F2021604F044FA40F2C1409C
:102B5000C2F20000007806288BD11120C0F21C00C0
:102B60000121FFF737FF28460121FFF733FF4FF41C
:102B7000A0100121FFF72EFF0420059005A94FF0BA
:102B80009040069600F0E2FC4FF0904002210122B6
:102B900000F03AFD0BF12805284600F015FA6E46C4
:102BA000304600F0C3F94020C0F20010CDF80A0012
:102BB0000020ADF8080040F27D50C2F20000019004
:102BC00008F1040000904FF48030CDF80E00284644
:102BD000314600F0BBF946F6A0014046C0F20601BE
:102BE0000022002304F0B2F94046012104F002FA69
:102BF0004046012104F008FA4046012104F07EF924
:102C00004046012104F08EF9202060704FF0805082
:102C1000386040465146012204F0DCF907B0BDE8B7
:102C2000F08F000044F62401C4F2010100220A6082
:102C300007E000BF0A68824228BF70470A688242E4
:102C400005D20A68824202D20A688242F2D37047F1
:102C500044F62401C4F2010100220A6042F6E06257
:102C60004A6051F8102C00EB800042F00102400055
:102C700041F8102C0A68824208D20A68824205D2C2
:102C80000A68824202D20A688242F3D378204860FE
:102C900051F8100C40F0010041F8100C7047000092
:102CA0002DE9F04340F2E45CC2F2000C40F2600E09
:102CB000DCF80040C2F2000E44F62062002300213E
:102CC000AEF8022003E000BF2833782B7AD00CEB5B
:102CD000030045682C1B1BD18468651B21D1C56886
:102CE0002C1B27D10469651B2DD145692C1B33D1C1
:102CF0008469651B39D1C5692C1B3FD1046A651BEA
:102D000045D1456A2C1B4BD1846A601BDCD051E055
:102D1000214494423CBFA2B2AEF802408468651BD5
:102D2000DDD0294495423CBFAAB2AEF80250C56836
:102D30002C1BD7D0214494423CBFA2B2AEF8024033
:102D40000469651BD1D0294495423CBFAAB2AEF8B4
:102D5000025045692C1BCBD0214494423CBFA2B207
:102D6000AEF802408469651BC5D0294495423CBF3A
:102D7000AAB2AEF80250C5692C1BBFD021449442C0
:102D80003CBFA2B2AEF80240046A651BB9D0294428
:102D900095423CBFAAB2AEF80250456A2C1BB3D094
:102DA000214494423CBFA2B2AEF80240846A601B48
:102DB0003FF48AAF014490423CBF82B2AEF80200B9
:102DC00082E700BF40F2E548C2F2000898F8000030
:102DD00040F2A04C4C09C2F2000C0128CCF818407B
:102DE00032D1941E022C0FD8CC090E2C0CD840F2F4
:102DF000E104C2F200040025257001248CF806408D
:102E000088F800400E2411E0541F032C1CD8CC0974
:102E1000182C19D840F2E1050124C2F2000588F807
:102E200000402C7003248CF80640072440F2E00593
:102E3000C2F200052C7020248EF8004040F2E444D9
:102E4000C2F200040125257040F2E649C2F20009F1
:102E500099F80060A2F1C905012E14D144F6565725
:102E6000BD4210D840F2E103C2F2000377241C7087
:102E700002238EF8003040F2E4430127C2F200033F
:102E800089F800701F70304302D0BDE8F08300BFA6
:102E9000901E02284FEAD11098BF0E2816D9511F54
:102EA000032998BF18281FD944F65650854288BF79
:102EB000BDE8F083012089F8000040F2E100C2F291
:102EC000000077210170022020E000BF40F2E10005
:102ED000C2F200000021017001208CF8060088F881
:102EE00000000E200CE000BF40F2E1010120C2F220
:102EF000000188F80000087003208CF80600072005
:102F000040F2E001C2F20001087020208EF80000BB
:102F100040F2E440C2F2000001210170BDE8F083FC
:102F2000026861F300020260704700000021018224
:102F3000C0E90011C0E90211704700000021C4F28D
:102F400002010968084018BF0120704702684BF66B
:102F5000EF731A4002600A8903681A4302604A7CD0
:102F6000036802F0030223F4405343EA0232026092
:102F7000CA7B036802F0030223F4406343EA82221F
:102F800002608A7B036802F0030223F4407343EA81
:102F9000022202604A7B036802F0010223F08003F0
:102FA00043EAC21202600A7B036862F3861303607D
:102FB0000A7C036862F3451303604A8942600A6829
:102FC00082604968C1607047016800F0FC024CF6FD
:102FD000CD43083ACCF6CC43A2FB032321F00101F8
:102FE000016000210422016041608160C1606FF0D6
:102FF0000300C4F2020200EA93000F21136801FAF1
:1030000000F018431060704740F20040C4F2010025
:10301000016841F4001101607047000010B542F6EC
:103020000044C4F2010420460021012203F0FEFC0A
:1030300020460221012203F0F9FC2046042101224E
:1030400003F0F4FC20460121012203F0EFFC2046AE
:103050000321012203F0EAFC20460521012203F0AE
:10306000E5FC206840F001002060606C40F4004006
:103070006064606940F00100606144F20040C4F2A5
:103080000100016840F2004441F001010160416922
:10309000C4F2000441F001014161C16821F0010165
:1030A000C160D0F8001441F00101C0F80014D4F858
:1030B000000C40F00100C4F8000C41F21400C4F20E
:1030C0000000016841F00101016042F20000C4F219
:1030D0000000016841F001010160416941F0010116
:1030E0004161C16841F00101C160FEF739F9204634
:1030F0000021012203F09AFC2068202140F0010009
:1031000020604EF20740CEF2000001704EF2001037
:10311000CEF200008021016040F20040C4F20100C4
:10312000016841F40041016010BD000042F20C0151
:10313000C4F202010860704742F21000C4F20200BB
:10314000016841F0800101607047000042F20C010B
:10315000C4F202014A6842F002024A60886048688C
:1031600040F0400048600868C0070DD1086840077B
:1031700046D40868C0064FF0020058BF03204A68D2
:1031800022F002024A6070474FF080420868C00790
:1031900000F08B800868C00738D00868C0073BD0B3
:1031A0000868C0073ED00868C00741D00868C0075B
:1031B00044D00868C00747D00868C0074AD00868EC
:1031C000C0074DD00868C00750D00868C00753D06A
:1031D0000868C00756D00868C00759D00868C007FB
:1031E0005CD00868C0075FD00868C00768D0103A94
:1031F000CCD104204A6822F002024A60704700BF26
:1032000001204A6822F002024A607047013A0868C9
:1032100040074DD558E000BF023A0868400747D53F
:1032200052E000BF033A0868400741D54CE000BFB8
:10323000043A086840073BD546E000BF053A0868F5
:10324000400735D540E000BF063A086840072FD553
:103250003AE000BF073A0868400729D534E000BFCC
:10326000083A0868400723D52EE000BF093A0868ED
:1032700040071DD528E000BF0A3A0868400717D567
:1032800022E000BF0B3A0868400711D51CE000BFE0
:103290000C3A086840070BD516E000BF0D3A0868E5
:1032A000400705D510E000BF0E3A086840070BD470
:1032B0000868C0064FF0020058BF032005E000BFB9
:1032C0000F3A08684007F3D50120012A08BF0420FF
:1032D0004A6822F002024A607047000042F204008D
:1032E00040F22311C4F20200C4F26751016048F6B3
:1032F000AB11CCF6EF5101607047000042F20C02B6
:10330000C4F20202536843F0010353600160106885
:10331000C0070DD11068400746D41068C0064FF0B2
:10332000020058BF0320516821F00101516070472D
:103330004FF480111068C00700F08B801068C00740
:1033400038D01068C0073BD01068C0073ED0106866
:10335000C00741D01068C00744D01068C00747D0EC
:103360001068C0074AD01068C0074DD01068C00769
:1033700050D01068C00753D01068C00756D01068EE
:10338000C00759D01068C0075CD01068C0075FD074
:103390001068C00768D01039CCD10420516821F0E2
:1033A00001015160704700BF0120516821F0010107
:1033B000516070470139106840074DD558E000BF93
:1033C00002391068400747D552E000BF0339106842
:1033D000400741D54CE000BF0439106840073BD599
:1033E00046E000BF05391068400735D540E000BF12
:1033F0000639106840072FD53AE000BF073910683A
:10340000400729D534E000BF08391068400723D5AC
:103410002EE000BF0939106840071DD528E000BF25
:103420000A391068400717D522E000BF0B39106831
:10343000400711D51CE000BF0C39106840070BD5C0
:1034400016E000BF0D391068400705D510E000BF39
:103450000E39106840070BD41068C0064FF0020008
:1034600058BF032005E000BF0F3910684007F3D5AF
:103470000120012908BF0420516821F00101516099
:1034800070470000F0B581B02825C4F6000505F5A9
:10349000767420460121002202230126022700F033
:1034A00093F84FF09040012100224FF48063C5F85B
:1034B000F0734FF4806700F087F820460121002266
:1034C00001232F6000F080F84FF09040012100228E
:1034D0004FF40073C5F8F0634FF4007400F074F813
:1034E0004FF090400121002280232C60802400F0C6
:1034F0006BF84FF09040012100224FF4807345F8A3
:10350000104C4FF4807400F05FF82C6001B0F0BDF7
:1035100042F61440C4F20100016841F0010101606B
:1035200070470000401A48BF404270471C20C4F258
:1035300001000068C0F380707047000040F2104046
:10354000C4F60000006800F0100070470A88002AE6
:1035500008BF7047F0B500234FF0030C4FF0010E89
:10356000002405E0520804F1010403F1020327D00E
:10357000D507F7D006680CFA03F5AE4306608E79DE
:1035800007689E403E43066046680EFA04F7BE4355
:1035900046600E794768A6403E4346608668AE4363
:1035A0008660CE7987689E403E438660C66826EA7C
:1035B0000505C5604D79C6689D403543C560D1E7B6
:1035C000BDE8F04070470000D0F800C05B4303EB5B
:1035D00043022CEA02025943114301607047000084
:1035E00080B5D0F800C05B4303EB430E2CEA0E0C11
:1035F000594341EA0C010160C1685A4321EA0E01B6
:103600001143C16080BD000010B51C2303EA810E88
:1036100024234FF00F0C082938BF2023C4580CFA7C
:103620000EF124EA0101C150C15802FA0EF2114311
:10363000C15010BD62B670472DE9F0474EF60850F4
:1036400041F20001CEF20000C0F6000101604FF42B
:10365000A0100121FFF7BEF94EF20B45CEF2000596
:1036600010204EF200162870CEF200064FF40060D3
:103670003060FEF73FF80424C0F21C04204601210C
:10368000FFF7A8F941F22800C4F200004FF6FF78D6
:103690004FF03B09C0F80480C0F80090201D0121C4
:1036A000FFF798F942F22800C4F20000322141608D
:1036B00077210160302028724FF4002040F2110A77
:1036C0003060C0F2140A50460121FFF783F94FF42D
:1036D000C0100121FFF77EF94FF090400321002236
:1036E00002230027FFF770FF4FF0904003210022D4
:1036F0002023FFF769FF6F704FF480503060002087
:103700000121FEF7D5FB1220C0F218000121FFF7BE
:1037100061F944F62C0044F60004C4F20100C4F23E
:103720000104C0F80080C4F828902068012140F00E
:10373000800020600AF58020FFF74CF94FF62C40FE
:10374000CFF6FF704FF4FA7121504FF62840CFF6B4
:10375000FF7044F80090AF724FF400103060BDE885
:10376000F0870000B0B540F23854C2F2000420697E
:103770007E282DD341F22401C4F2000108687C2880
:1037800040F2BC40C2F200000AD8B0F85220D20881
:103790004A2A05D8E269B2F5FA7F01D2B0BD00BF6E
:1037A00040F20002C2F200020968B2F85620B1EB02
:1037B000520F38BFB0BD90F825100131CAB2652A4A
:1037C00080F8251004D301F011FA0020E061B0BDAB
:1037D00040F20004C2F20004617FE07E61B1A8B152
:1037E000002500BFFFF7A2FE0028D7D1E07E0135FB
:1037F0008542F7D30AE000BF40B10025FFF796FEEF
:103800000028CBD0E07E01358542F7D301F0EEF9F8
:10381000EFF3108072B641F22400C4F20000016898
:1038200040F2BC42C2F20002A2F85E100021016028
:10383000B2F85400237ED840A2F8540044F20C425F
:10384000C4F201020130916110625160106840F0D1
:103850000100106062B6B0BD2DE9F04182B040F2C7
:10386000E964C2F2000447F60041C0F600012046B8
:103870004FF4807201F072FC6078042840F2F68107
:10388000607CA17C0138B0FA80F040F2BC4640096F
:10389000C2F20006B072481EE27CB0FA80F0400925
:1038A000012AF07204BF0120B073207D617D0138D0
:1038B000B0FA80F040F200054009C2F2000528711C
:1038C000481EA27DB0FA80F040096871501EB0FA1F
:1038D00080F04009E37DA871207E212BA0F1080132
:1038E00028BF102358296B7222D8182826D340F2FB
:1038F000E2471821602241F28833009701F04EF927
:103900000146207EA5F84610A0F10C010B2919D91B
:1039100000F0FC01082926D141F64C57072110225E
:1039200043F69823009701F039F9A5F846001CE00A
:1039300041F28830A5F8440018E000BFA0F10C0166
:103940000B29E5D841F288370C21182242F2107376
:10395000009701F023F90146207EA5F8461000F0FB
:10396000FC010829D8D0B5F8460080B242F6444898
:10397000C4F2010848F8180C607E1427A0F1320147
:10398000C9B264299CBF31386875A07E227F00EBE4
:10399000800007EBC000E884501E637FB0FA80F01F
:1039A00040093073581EB0FA80F0E17E4009707310
:1039B0000220A97202F0F6FC607878B3A07F0B2891
:1039C00088BF052002F0EEFCE07F94F8201001385B
:1039D000B0FA80F04009F07340F2EE2094F8212014
:1039E00000EB410094F82230E88540F2D66000EB0D
:1039F0004200288603F25E50688694F8240094F80A
:103A00002310022829740BD0012811D194F8251015
:103A10000120B07401F1FA00A8860BE0E88CF3E015
:103A20000220B07494F8250064214843A88401E082
:103A30000020B07494F8261094F828000139B1FAE7
:103A400081F14909F174411F14294FF000013174CB
:103A500098BFE87394F82900411E092998BF28737C
:103A600094F82A00411EC9B208290DD8687300EBEA
:103A700080006FF02D01A1EB4000A873D8F8001072
:103A8000C0B20843C8F8000094F82B00A0F146012A
:103A9000462998BF287294F82C00411E622904D848
:103AA0004000C0B228850120B07594F82D00411E59
:103AB000092998BFE87294F82E00092806D804282E
:103AC0000DD8DFE800F003C9C1C5B1000020A6F899
:103AD000290040F22140C2F200000121017094F857
:103AE000350094F836100138B0FA80F04009012909
:103AF00086F82C0028D10120707094F8370094F8D3
:103B0000381000EB80002F2707EB8000A6F8580044
:103B100001EB810094F8392094F83A3007EB8000EB
:103B2000A6F85A006420C82150435943C5E916102D
:103B300040F2680194F83B00C2F20001043194F8AD
:103B40003C2094F83D300DC194F83F0094F83E10AD
:103B50009628F18606D200EB80008000A5F8400090
:103B600002E000BFB5F84000697DAA7BB5F84E3091
:103B7000014469879918A5F84E10E98F104494F80C
:103B800040200844552AE88704BF0120307094F88B
:103B9000410094F8421094F8432094F84430B070F7
:103BA00094F84500F171AA705528337204BF0120C2
:103BB000307194F8460094F84910F070B4F847005A
:103BC0000129288004BF012086F82D00E88C2023DD
:103BD00081084A299CBF0021A97445F62941C0F2F9
:103BE0008F21A0FB0112A97AB3FBF1F140F610730B
:103BF000C0F60F73A0FB0337B2FBF1F2B7FBF1F194
:103C0000A5F84A20A5F84C104FF4FA774FF49671B6
:103C100040F6B8324FF47A73009700F0BFFF288760
:103C200002B0BDE8F08100BF40F22040C2F20000C7
:103C30000121017040F22140C2F200000022027016
:103C400086F829104BE700BF012086F82A0046E7D6
:103C50000520707143E700BF40F221410120C2F20C
:103C6000000186F82900087039E700BFFDF772FEF1
:103C700082B0FFF7DFFCFFF7DFFCFFF7CFF9FFF7BC
:103C8000EBFD40F2E960C2F20000C17840F20007AB
:103C900040F2BC4A0329C2F20007C2F2000A02D174
:103CA000017905294CD040F20351A0F8031045F2E8
:103CB0004141C3F23321C0F8051044F25021C2F251
:103CC0003401C0F809104FF02031C0F80D10F97818
:103CD0009AF80B6041709AF80A103A790139B1FAF2
:103CE00081F149094174711E7B7997F806C09AF8F1
:103CF0000E70B1FA81F149098174791EB1FA81F12E
:103D00004909C174511EB1FA81F149090175591E61
:103D100040F20007B1FA81F1C2F20007490941758A
:103D2000ACF101017A7AB1FA81F14909C27547F61D
:103D300000428175C0F600024FF4807101F09AFCD8
:103D40009AF80E0000281CBFB88F78879AF80A00EE
:103D5000013818BF0120B8773879B7F84610002825
:103D6000A7F8441004BF00208AF80E009AF8130048
:103D7000D8B14FF47A70A7F84E0001208AF80B00F2
:103D80000021B874B7F840008AF80E10B980B971F4
:103D9000B7F842103230A7F8400001F13200798FB5
:103DA000A7F8420001F1320078879AF8050043F243
:103DB000000505380128C4F200051BD8FEF732FEC5
:103DC00001F002FA01208AF8280001F029F94AF6E8
:103DD000AA2028609AF8000018B341F28830A7F8AA
:103DE000560000208AF80E0000F000FF00F0ECFF03
:103DF00019E000BF02F046FBFDF738FD0020AAF8ED
:103E00004C004AF6AA20286001F008FA9AF801004E
:103E100000281CBF01208AF815009AF8000000282D
:103E2000DBD101F0FDF84EF20B4941F22406CEF24F
:103E30000009C4F2000602F099FAFDF7C1FB40F256
:103E40003854C2F2000400BF9AF80600B8B19AF8DC
:103E5000090002280AD0012804D1FEF7DFF900206A
:103E60008AF8090001F042FE06E000BF208C00F055
:103E7000B5FD00208AF8090000208AF80600E069F4
:103E8000B04605284FF0030038BF062087F8200011
:103E900087F821004AF6AA202860208D618DA28D26
:103EA000E38D0844268E1044658E1844304428441F
:103EB000797904304008206259B1B7F84660B7F804
:103EC000560073086021C822009600F067FEA7F82C
:103ED0004400BAF8560042F2117188424FF0010BCB
:103EE000464609D39AF82710002940F0D58449F6B0
:103EF0004141884280F0D084BAF8400044F6216104
:103F0000884245D3BAF8420046F2B7020104CBF228
:103F10000B6251FB02F101EB00410A1202EBD1727C
:103F200040F22541C2F20001A36809781A4403292E
:103F3000A26011D0022907D0012926D19AF83000B9
:103F4000022100F5007016E0C0B229214843C00AE2
:103F500000F5C06003210EE0BAF86A0044F2AF71C8
:103F60004143A0EB1140400800EB1140000904213F
:103F700061F31F20012140F22642C2F200021080AC
:103F800040F22540C2F2000001700020AAF8400073
:103F90009AF8000070BBBAF84800E36980B2642B5D
:103FA0004FF0000188BF0121C8284FF0000238BF40
:103FB0000122B3F57A7F02D808B1114002D0002166
:103FC0008AF822109AF80E1021B19F289CBF002178
:103FD0008AF822109AF8181031B1000918289CBFED
:103FE00000208AF8220005E095288CBF0A20642072
:103FF000387500BF206A45F25651C5F255519AF8FE
:104000001C2050FB01F000EBD071216112B3E0697C
:1040100015281ED3606AFFF785FA21690A097C2AF0
:1040200014D84A08904211D99AF81700002101309B
:104030008AF81700788FE1618AF8231042F2107134
:10404000400887F819B02161AAF8440000208AF8D6
:104050001C0061629AF82000B7F85610002889B257
:1040600018BF012032294FF0000188BF012108400C
:104070004FF010011CBF0021102089F8001089F8B2
:104080000A0089F801009AF81E00B0B19AF80500FC
:1040900098B99AF83000BAF86A10BAF842206389E1
:1040A000BAF870604FF0010B0096464600F00EFC27
:1040B00001F0B0FB00208AF81E009AF81D000130C4
:1040C000C1B265298AF81D00C0F0AD8043F2000539
:1040D000C4F20005C846FDF72BF905F5744001212F
:1040E000A146FDF7EBFDBAF8760040F6E444112155
:1040F0006043C1F20101A0FB0101F87C090A4843B9
:1041000045F62941C0F28F21A0FB011C9AF821102D
:1041100040F6820EC2F2000ED9F814303EF811605B
:10412000BAF85C209B1B48F21F501344C5F2EB10F9
:10413000A3FB0065C5F30F174EF605407C43C0F2A4
:104140004F00BAF87260A4FB004048F2E8046643EE
:1041500043F23814A4EB16364FF2CF34CCF63C744D
:1041600056FB04F6F41004EBD6762EF8112001313C
:104170000F36CAB2AAF87460BAF86A408AF830609A
:10418000C9F81430312A88BF00218AF82110290982
:10419000C4EBC406AAF84A109AF812106644002329
:1041A000C9F80C7040F20007020448BF18464C469C
:1041B000C2F20007AAF842004FEAD600AAF86A0045
:1041C00039B3B98C80B2814220D9BAF83E009AF84E
:1041D00024104FF67C4601304FF47A73CFF6FF7609
:1041E00082B211FB06319142AAF83E0011DA002595
:1041F000AAF84E50FDF77AFD00F0F8FC8AF823503B
:10420000AAF84C508AF8275003E000BF0020AAF813
:104210003E0041F224060020C4F20006C1464FF0E1
:10422000010B8AF81D009AF8240000284FF00000C6
:104230008AF8250042D0BAF84E0031286AD39AF89D
:104240002710002966D0882800F28C809AF8110087
:10425000A8B144F20C41C4F20101086820F0010049
:10426000086000F0C3FC42F63440C4F201000025AF
:10427000C0E900558560FDF77FFD8AF81150BB7FCE
:10428000BAF86200BAF86410BAF86620B046002B9B
:1042900000F07881013803B20139002B0BB2A2F192
:1042A000010248BF40F26710002B13B248BF40F232
:1042B0006711002B48BF40F2671276E1206A42F294
:1042C000C072C0F209029AF8231092FBF0F0484342
:1042D000AAF8700080B24CF6CD414843B97CC00CBE
:1042E0000029AAF878005DD0B7F84A10B7F84C203A
:1042F000B7F84E3040F20007C2F20007B7F850702E
:10430000009740F20007C2F2000700F047FC0146A8
:104310004AE000BF9AF80C008AF811B0002800F0BB
:10432000A180B7F84600397BB7F8442000EB410183
:1043300013398BB25A43B2FBF0F2AAF85210801A2A
:104340000130AAF86E0000F0CDFEBAF86E0042F619
:104350003441C4F20101C1E9000088608AF81FB04D
:104360008AE000BFBB7FBAF86200BAF86410BAF8FE
:104370006620002B8AF811B000F09A81013803B250
:104380000139002B0BB2A2F1010248BF40F26710C5
:10439000002B13B248BF40F26711002B48BF40F218
:1043A000671298E14FF4FA619AF830003A7AA7F868
:1043B000481090420BD9B7F85030A2F10A010A32E6
:1043C0005B08CDF800B000F0E9FBA7F848009AF8C8
:1043D0002C0060B1BAF84E002F2140F2FF720A2380
:1043E0003546162600962E4600F0D8FB7872E06916
:1043F000632807D8B7F85610B1F5FA7F02D90C2018
:104400000DE000BF206964214FF4FA7203233546A2
:104410000C2600962E4600F0C1FBB7F85610642912
:1044200038BF0220F87630684AF6C9718842C0F079
:1044300025829AF82300012840F020829AF8220071
:1044400001308AF8220000F0D1FBBAF84E0087F85C
:1044500019B0302814D200208AF8230041F28830A5
:1044600010E000BF42F63440C4F201000021C0E970
:1044700000118160FDF73AFC0020AAF87000FDE110
:10448000B7F856000022E261316800EB4000AAF85C
:104490005E10326010FA81F0397FC0F38F02B2FBF8
:1044A000F1F18208A161C1EBD000E169AAF85400E2
:1044B000052980B2A7F8562018D2316844F20C4181
:1044C000C4F201010862B97F97F8220001291BD1CB
:1044D0000130C1B2072987F8220022BF012087F8E6
:1044E00022008AF81C0000F0010019E031688142C6
:1044F000E4D231688142E1D231688142DED2316852
:104500008142F3D3DAE700BF0138010687F82200C1
:1045100004D1062087F822008AF81CB02BEA00009C
:104520007877EFF3108072B69AF81F0018B997F8F1
:104530002200FDF7C9FC62B6FDF77CFC206940F65D
:10454000C511884228BF87F819B097F82210B7F82C
:10455000560004EB4101C884E169002201311429AD
:104560008AF82B208AF82E208AF82620E161C0F0F4
:104570008581B0F5FA6F00F2818100207876FEF730
:1045800043FD7BE1013003B20131B3F5B47F0BB2DF
:1045900002F10102A8BF0020B3F5B47F13B2A8BF97
:1045A0000021B3F5B47FA8BF002240F2EA06AAF8C2
:1045B000620000B2C2F20006AAF8641036F91000D8
:1045C000B7F85410AAF86620B7F84620084444F615
:1045D000D35B5043C1F2620B50FB0BF0C111FA7A6E
:1045E00001EBD07046F267695043C6F2666950FB32
:1045F00009F0810801EBD07080B201F0C1FEBAF978
:104600006400B7F8541036F91000B7F84620084493
:10461000504350FB0BF0C111FA7A01EBD0705043BC
:1046200050FB09F0810801EBD07080B201F0AEFEC2
:10463000BAF96600B7F8541036F91000B7F84620FA
:104640000844504350FB0BF0C111FA7A01EBD070D3
:10465000504350FB09F0810801EBD07080B201F0AB
:104660009BFEB97A41F65832B2FBF1F340F22A329E
:10467000B2FBF1F7BAF84E0030217822009740F2F1
:104680000007C2F2000700F089FAA7F8520080B2D2
:10469000FEF7C8FAB7F852004FF41671B1FBF0F00C
:1046A0004EF20B49AAF87000CEF200094646E5E04A
:1046B000013003B20131B3F5B47F0BB202F1010254
:1046C000A8BF0020B3F5B47F13B2A8BF0021B3F593
:1046D000B47FA8BF002240F2EA06AAF8620000B246
:1046E000C2F20006AAF8641036F91000B7F85410A8
:1046F000AAF86620B7F84620084444F6D359504338
:10470000C1F2620950FB09F0C111FA7A01EBD070D5
:1047100046F267685043C6F2666850FB08F08108AD
:1047200001EBD07080B201F02BFEBAF96400B7F84B
:10473000541036F91000B7F846200844504350FB97
:1047400009F0C111FA7A01EBD070504350FB08F028
:10475000810801EBD07080B201F018FEBAF9660052
:10476000B7F8541036F91000B7F846200844504303
:1047700050FB09F0C111FA7A01EBD070504350FBA5
:1047800008F0810801EBD07080B201F005FEBAF8A4
:104790004E00C82806D90020AAF862005020A7F8C9
:1047A000520001E0B7F852004EF20B4941F22406E4
:1047B000CEF20009C4F20006FEF734FABAF862003D
:1047C00000285BD142F22830AAF823B087F819B04C
:1047D000A7F856002061606230609AF80D0014213D
:1047E00000284FF00000E1618AF81F001CBFB7F8F5
:1047F0004200AAF84400B97FB87E01290ED10130E9
:10480000C1B2072987F8220022BF012087F82200C1
:104810008AF81C0000F001000CE000BF013801061E
:1048200087F8220004D1062087F822008AF81CB0FD
:104830002BEA00007877EFF3108072B69AF81F0029
:1048400018B997F82200FDF73FFB62B6FDF7F2FAC0
:10485000206940F6C511884228BF87F819B00020AA
:104860008AF82E008AF82B0097F82200B7F8561025
:1048700004EB4000C184FEF74BFE00BF9AF8000035
:1048800043F200050028C4F200053FF4DDAA00F061
:104890000DFDFFF7D9BA00BFFDF728FA42F6344103
:1048A0000020C4F20101AAF82700CAF84C000860F1
:1048B0004860886000F0F2FC40F2E450C2F2000070
:1048C0004FF48071FCF7A6FCFDF744F880B540F288
:1048D000725CC2F2000C8CF80000080ADDF808E0F7
:1048E0008CF80100100A8CF80300180A8CF80210EA
:1048F0008CF804208CF805004FEA1E208CF808E0A4
:104900004FF0000E072100228CF806308CF80700CB
:104910001CF80E305A4053B2D2B25000002B48BFA0
:1049200081EA420081EA4002030658BF420081EA60
:104930004200130658BF500081EA4002030658BFE8
:10494000420081EA4200130658BF500081EA40024B
:10495000030658BF420081EA4200130658BF5000C8
:1049600081EA4002030658BF4200BEF1080F31D071
:104970000CEB0E0040780EF1020E504042B2C0B275
:104980004300002A48BF81EA400381EA43001A0637
:1049900058BF580081EA4002030658BF420081EA2E
:1049A0004200130658BF500081EA4002030658BF78
:1049B000420081EA4200130658BF500081EA4003DA
:1049C000020658BF430081EA4302180658BF5A0046
:1049D0009EE700BF8CF8092080BD000040F2204C0B
:1049E000C2F2000CBCF8061021B10020ACF80600A1
:1049F00032E000BF40F2DF41C2F200010978002935
:104A00004FF0000108BF4FF6FF70B1EBD03F13D15C
:104A1000B1EB903F12D1B1EB503F11D1B1EB103F50
:104A200010D1B1EBD02F0FD1B1EB902F0ED1410AA5
:104A300018BF01210BE000BF072108E0062106E0B6
:104A4000052104E0042102E0032100E00221C84026
:104A5000CCF8101040EA41212DE9F04F81B008094F
:104A600080EA112048400F24844344EA011047F2B1
:104A70005E230A0ACCF81400C0F60003C1F3031049
:104A800001F00F0113F800B09E5C13F8018013F8D9
:104A900004E040F2E003C2F200034FEA8B201978F1
:104AA00040F2EC72802740EAC630C2F2000227EAE8
:104AB000C60A06F00806009102EB81038AEA061690
:104AC00007EA90214EEA4819714007EA502549EA61
:104AD00000044D4007EA1020CCF8184068400BF065
:104AE000100C80EACC0C0BF008028CEA0212C3E92D
:104AF000055007EA5410C3E90361C3E907C282EA1B
:104B0000000C07EA141181EA0C0107EAD402C3E998
:104B1000017A4A4008F0100782EAC70708F0080641
:104B200087EA061609F0800526F07F04654009F043
:104B3000400485EA440409F0200084EA8000C3E9C7
:104B400009C10EF01001C3E90F4080EAC1000EF068
:104B50000801C3E90B2780EA01110EF0040281EA83
:104B60004212C3E90D650EF0020722F07F0686EAC5
:104B700087174FEACE1603F1440CF6B28CE8870093
:104B800040F2EC71009A7E400020C2F200015E65A6
:104B900041F8220001B0BDE8F08F000010B5844656
:104BA00002988C4518DD1446864600BFA445704621
:104BB000A8BF10BD834215D022460C44641000EB00
:104BC000030EA1424FEA6E0E0ED0A445EEDD611C2D
:104BD0008C457346E7DC00E09E469445B8BF7046BE
:104BE00010BD00BF184610BD704610BD40F2004019
:104BF000C4F20100016821F4001101604FF40011BA
:104C0000416170472DE9F04381B042F62848C4F273
:104C1000010841F28830C8F80400EFF3108072B642
:104C200040F27C50C2F20000007843F200094CF6DA
:104C3000CD447925C4F200094AF6AA27CCF6CC4423
:104C40000A26C8E90300C8F8140000BF023DA5FB0E
:104C500004010809C9F80070FDF736F906EB5500A4
:104C6000C8F800000A20FDF7F3FF022DEED8FDF78B
:104C70003DF8002040F24602C8F80000C2F20002EF
:104C800040F212511288C2F200010880C8F80420D4
:104C900062B601B0BDE8F0832DE9F04F81B042F675
:104CA000284543F200070320C4F20105C4F20007BF
:104CB000FDF70AF940F2125440F2E96800264AF67C
:104CC000AA29C2F20004C2F200084FF0000B4FF014
:104CD000000A07E00AF1010A0BF134000BF1020BA4
:104CE000AE285FD2C7F8009008EB0B0191F83400B2
:104CF0002680FF28EED091F835205FFA8AF1002A4D
:104D000042D04FF47A6326463C46F72712FB07321F
:104D100049F28063C0F29803B3FBF2F248F2A06359
:104D2000C0F20103C1EBC111B3FBF2F300EB410090
:104D300048F21F515843C5F2EB11A0FB010141F6A7
:104D40000030C0F2B700B0FBF2F00A222A6080B255
:104D500040F27C526860C2F200021278274650434B
:104D600043F2E362C0F21A02A0FB02025008C5E956
:104D700003006861C1F34F1034460026FDF768FF59
:104D80004FF0000AA8E700BFC1EBC11100EB4100E2
:104D90004FF0000AC5E903AAC5F814A0FDF758FFB3
:104DA0009AE700BFFCF7A2FF002040F2460128600E
:104DB000C2F200010988696020804AF6AA203860A2
:104DC00001B0BDE8F08F000010B5EFF3108072B6AF
:104DD00042F62844C4F2010441F28830606040F297
:104DE0007C50C2F200000078C4E903006061012039
:104DF000FDF76AF8282020604FF49670FDF728FF31
:104E00000220FDF761F81E2020604FF49670FDF738
:104E10001FFF0320FDF758F8192020604FF496700B
:104E2000FDF716FF0420FDF74FF8142020604FF423
:104E30009670FDF70DFFFCF759FF002040F2460287
:104E40002060C2F2000240F212511288C2F2000148
:104E50000880626062B610BD10B542F62844C4F204
:104E6000010441F2883060602820206040F27C50CC
:104E7000C2F200000078C4E9030060610220FDF77F
:104E800023F89620FDF7E4FE43F20000C4F2000090
:104E90004AF6AA210160502020609620FDF7D8FE36
:104EA000FCF724FF002040F246022060C2F200021C
:104EB00040F212511288C2F200010880626010BDF7
:104EC00010B542F62844C4F2010441F28830606013
:104ED0003220206040F27C50C2F200000078C4E929
:104EE000030060610220FCF7EFFF9620FDF7B0FEA3
:104EF00043F20000C4F200004AF6AA2101601E201D
:104F000020609620FDF7A4FEFCF7F0FE002040F2A2
:104F100046022060C2F2000240F212511288C2F230
:104F200000010880626010BD10B5EFF3108072B60A
:104F300042F62844C4F2010441F28830606043F232
:104F40000000C4F200004AF6AA210160502020604F
:104F500040F27C50C2F200000078C4E903006061B6
:104F60000320FCF7B1FF6420FDF772FE46202060AD
:104F70006420FDF76DFE282020606420FDF768FEA8
:104F8000FCF7B4FE002040F246022060C2F20002AC
:104F900040F212511288C2F200010880626062B6CB
:104FA00010BD000070B542F62844C4F2010441F27D
:104FB00088306060EFF3108072B643F20005C4F2EF
:104FC00000054AF6AA263C202E60206040F27C5064
:104FD000C2F200000078C4E9030060610120FCF720
:104FE00073FF4B20FDF734FE502020604B20FDF76F
:104FF0002FFE5A2020604B202E60FDF729FEFCF783
:1050000075FE002040F246022060C2F2000240F22B
:1050100012511288C2F200010880626062B670BD4F
:1050200010B5EFF3108072B647F68040C0F600006E
:10503000007842F62844FF28C4F2010402D0FFF7AA
:105040002BFE2BE041F28830606040F27C50C2F2CF
:1050500000000078C4E9030060610320FCF734FF1E
:1050600037202060C820FDF7F3FD0520FCF72CFF5A
:1050700028202060C820FDF7EBFD0620FCF724FF68
:1050800019202060C820FDF7E3FDFCF72FFE40F259
:1050900012510020C2F200012060088040F2460058
:1050A000C2F200000088606062B610BD10B540F228
:1050B000BC44C2F20004607A022809D0012803D15E
:1050C000FDF7ACF800206072BDE8104000F00EBDA6
:1050D00040F23850C2F20000008CFFF77FFC002045
:1050E000607210BDB0B54FF09040012100224FF426
:1050F00080634FF48064FEF767FA2825C4F6000544
:105100004FF09040012100224FF400732C604FF4C7
:105110000074FEF759FA4FF09040012100224FF43D
:1051200080732C604FF48074FEF74EFA2C6005F506
:1051300076742046022100220223FEF745FA20461B
:10514000022100220123FEF73FFA4FF09040022196
:1051500000228023BDE8B040FEF736BA012AB8BF6E
:10516000704770B5042A02F0030C01D2002215E04A
:105170004FF6FC73C7F6FF7302EA030E431C0022CE
:105180008D5C9E188C1806F8015C65789D54A57896
:1051900004327570E4789645B470F1D1BCF1000F1B
:1051A0000FD0535CBCF1010F83540AD0531C13F889
:1051B00001E0BCF1020F00F803E002D00232515CC2
:1051C0008154BDE87040704770B540F2C146C2F2EC
:1051D00000063078302544F20044C4F20205052868
:1051E000C4F200040BD14020686004F57440012132
:1051F00001F084FE286840F001002860307806281D
:1052000018BF70BD4020E8622046012101F076FE03
:10521000A86A40F00100A86270BD0000B0B5442546
:10522000C4F20205286840F20044C4F20004286079
:10523000204601F081FC47F2010040F2E101A0614B
:10524000C2F200010B20097820624FF6FF70A162C4
:10525000E0626069002140F00100606140F6810079
:10526000C2F20000017004F134006162A86040F2F3
:10527000E450C2F20000E86040F26000C2F20000B8
:1052800000786860E06840F40070E060206840F0FA
:105290000100206040F68B102860B0BD40F2244031
:1052A000C4F2000000218160016070472DE9F047E1
:1052B00082B040F20009C2F20009B9F8460040F29B
:1052C000BC484CF6CD41C2F20008414398F8042096
:1052D000A0EB11541FFA84FA62B198F8271098F8DD
:1052E0000B00002918BF00281CD1002945D102B0AD
:1052F000BDE8F08798F81A10B8F84800002940F087
:10530000EE803128C0F0EB8099F81E50FCF7EEFCDF
:105310000A20FDF787FC002D00F0DA8001F040FD47
:10532000D8E000BFB8F84800302140F2FF720023F7
:10533000CDF800A0FFF732FCB8F832100546084659
:10534000302140F2FF720023CDF800A0FFF726FCC9
:1053500087B217FA85F0A4EB500080B2AEB201F02C
:1053600015F8304601F00CF8384601F015F898F8B9
:105370000B0098F827100029B9D00028B7D199F868
:105380001E50FCF7B3FC0A20FDF74CFC15B101F0F0
:1053900007FD01E001F05CFDB8F84800302140F263
:1053A000FF720023CDF800A0FFF7F8FBB8F8321029
:1053B00005460846302140F2FF720023CDF800A0D8
:1053C000FFF7ECFB98F8307099F8081006468F420A
:1053D0000BD94FEA5A0301F1140201243846009414
:1053E000FFF7DCFB04461FFA80FAA8B25045B0B2C2
:1053F00088BF2546504598F8160088BF26460028E5
:10540000A9F848404AD0B8F94200B9F828106FF01E
:10541000630201FB020140F26800C2F20000836BEC
:10542000D0E90BC2846C02FB0132D0F834E0A24216
:10543000A8BF2246076C6442CF1BA242D8BF2246B7
:1054400007FB0E24C36C0CFB01449C42A8BF1C4606
:105450005B429C42D8BF1C4641F25973826307FBF2
:105460000EF2CDF2B7138162C0E90F21B9F8361000
:10547000A4FB033C4464A1EB5C30B9F8401002B2D9
:105480008A42B8BF0846A9B202B29142B1B2A9F8A5
:105490003600C8BF05469142C8BF064645EA060029
:1054A00000040FD098F8270060B1A8B200F068FFA0
:1054B000002000F06BFFB0B202B0BDE8F04700F092
:1054C0006BBF00BF42F63440C4F2010084E000BF6D
:1054D00001F0BEFCB8F84800012188F81A1030210C
:1054E00040F2FF720023CDF800A0FFF757FB98F8B9
:1054F000307099F8081005468F420CD9B9F846006B
:1055000001F114024308012638460096FFF746FBD6
:1055100004461FFA80FAA8B2504598F8160088BFD2
:1055200025460028A9F8484046D0B8F94200B9F805
:1055300028106FF0630201FB020140F26800C2F222
:105540000000836BD0E90B72866C02FB0132D0F84D
:1055500034C0B242A8BF3246046C7642B242D8BFD1
:1055600032460E1B06FB0C2407FB0147C46CA74206
:10557000A8BF27466442A742D8BF274641F25974C4
:10558000826306FB0CF2CDF2B7148162C0E90F21F1
:10559000B9F83610A7FB04434764A1EB5330B9F8C0
:1055A000401002B28A42B8BF0846A9B202B2A9F8B6
:1055B00036009142C8BF0546280442F63440C4F282
:1055C000010009D098F8271031B1A9B2C0E9001143
:1055D000816002B0BDE8F087002101604160816018
:1055E00088F81A1002B0BDE8F0870000B0B540F2AC
:1055F0000001C2F2000140F2E960CA78C2F2000084
:10560000427040F2BC42C2F20002947AD57A927B98
:105610000B79013AB2FA82F25209C2745A1E91F819
:1056200005C0B2FA82F252090275ACF1010291F89A
:1056300006E0013CB2FA82F2B4FA84F45209640939
:105640004275AEF1010244746C1EB2FA82F2B4FAF1
:1056500084F452094B7A6409827547F600428474D7
:10566000C0F600024FF48071C375BDE8B04000F091
:1056700001B800002DE9F04F03AF85B08346C8178D
:1056800001EB90704FEAA00820F00300073020F0F3
:1056900007009246ADEB00058946AD4628464146D7
:1056A000FBF7B8FDB9F1040F38DBA8F101000328BE
:1056B00008F0030C02D2002119E000BF4FF6F07190
:1056C000C7F6FF7101EA880E002300215BF8034052
:1056D0000BEB0300EA18EC5044688668C06810338E
:1056E0009E4501F10401C2E90146D060EED1BCF152
:1056F000000F13D05BF82120BCF1010F45F82120E9
:105700000CD04A1C5BF82230BCF1020F45F8223065
:1057100004D0881C5BF8201045F8201047F8148C42
:10572000FDF7DCFD5FEA8A5002D15046FDF70EFD21
:10573000002000BF47F8180C57F8180C57F8141C35
:10574000884211D257F8180C57F8181C0AEB800041
:1057500055F82110FDF7D2FD0320FDF7E7FC57F8BF
:10576000180C0130E6E700BFA7F10C04A546BDE820
:10577000F04FFDF7E1BC0000B0B54425C4F20205CE
:10578000286840F2004440F01000C4F20004286091
:10579000204601F0D1F96020A0610320206240F290
:1057A000A640C2F2000000780121A0624C20E06215
:1057B00040F68100C2F200000170606940F0010013
:1057C000606104F13400A86040F2EC70C2F20000A5
:1057D000E86040F2E000C2F2000000781730686034
:1057E000286840F002002860286840F0080028601F
:1057F000286840F001002860E06840F40070E06034
:10580000606C40F400406064206840F0010020605B
:10581000B0BD000040F2E800C2F2000000781C2198
:10582000C4F202014860086840F001000860704757
:1058300070B582B040F27D5CC2F2000C9CF80110A1
:10584000012905D19CF81900002840F0D780BCE060
:10585000881EC2B2012353FA80F0032A47F256127F
:1058600000F0030E0CF10203C0F6000202D2002485
:105870001AE000BF20F00300002400BF13F8045B0F
:10588000043884EA050413F8036C145D13F8025C11
:1058900084EA0604145D13F8016C84EA0504145DBF
:1058A00084EA0604145DE9D1BEF1000F10D0187827
:1058B000BEF1010F80EA0400145C09D05878BEF1F3
:1058C000020F80EA0400145C02D098786040145CF7
:1058D0009CF81900844240F09180182975D19CF8F9
:1058E00003009CF8042040F27C419CF8053062F3F0
:1058F0000A20C2F200019CF806608880D00863F399
:105900004A10C880B0009CF8072040EA931062F368
:105910008A2008819CF80800520860F3CA124A8164
:105920009CF8092000099CF80A3062F30A1088816B
:1059300058009CF80B3040EAD21063F34A20C8812B
:105940009CF80C009A0860F38A120A829CF80D20D9
:105950009CF80F60D2009CF8105042EA5010488228
:10596000F0089CF8112065F34A10C88290009CF85A
:10597000122040EA951062F38A2008839CF81300F5
:105980009CF80E30520860F3CA1266F30A234A8369
:105990009CF814208B8200099CF8153062F30A10E1
:1059A000888358009CF8163040EAD21063F34A20EE
:1059B0009CF81720C88398089CF8183062F38A1066
:1059C0000884D80040EA5210488440F2C740C2F22E
:1059D0000000017840F2BE40C2F20000007840F2C0
:1059E0007C44C2F2000404EB4000808881B1A0F244
:1059F000D5310F2910D24FF47A7016E040F27C4076
:105A0000C2F2000001680131016002B070BD00BF48
:105A1000AF281FD2002026E04FF4FA66AE2140F2F4
:105A2000127200230096FFF7B9F840F2BF41C2F2AC
:105A30000001097840F20C5204EB41018988C2F25E
:105A4000000210804FF4FA660846AE2140F212724E
:105A500000231CE040F2FF76AE2140F212723023A8
:105A60000096FFF79BF840F2BF41C2F200010978AF
:105A700040F20C5204EB41018988C2F2000210800E
:105A800040F2FF760846AE2140F2127230230096B3
:105A9000FFF784F840F2EE41C2F20001088040F2C4
:105AA000E34140F2085240F20450C2F20001C2F257
:105AB0000002C2F200001388097800880133090649
:105AC00018BF0023002840F2C240C2F200004FF08D
:105AD000010118BF0023017040F21250C2F2000011
:105AE00000211380018002B070BD0000F0B581B0CC
:105AF00040F2BC44C2F20004E07A08B394F82900F2
:105B0000E17C002840D0B4F85000002900F0568312
:105B1000B0F5836F6CD340F20001C2F200018A7FBE
:105B2000A37A9A4240F08C80277D00230126A4F8B6
:105B30004830E67747B1C2F101028A77E37783E024
:105B4000B4F85000A4F84800207808B101B0F0BDC6
:105B500040F20005C2F2000594F82200297D884237
:105B60003AD9A879C0B3FCF7C1F8FFF73FF8002095
:105B7000A4F84E00662084F8220094F8240000283F
:105B800000F06081E2E700BF40F20007C2F20007C8
:105B90003A7CB4F850004FF47A765300002906EBB3
:105BA000420141D0814280F0E380BA7FA67AB242BE
:105BB00040F0CC80267D4FF0000C4FF0010E002EFF
:105BC000A4F848C084F81FE000F0D280C2F10102BE
:105BD000BA7784F81FC0BBE0A07B002848D0B4F897
:105BE00048001D287CD80021A4F84E100EE100BF0B
:105BF000A0F1300189B2C9087C292DD840F20001FA
:105C0000C2F20001A27A8B7FC2F101079F4240F0ED
:105C10009180277D00230126002FA4F84830E677E5
:105C200092D08A77E37789E081425FD3C3F57A72B5
:105C3000824200F26A82824240F2AD82B3E200BF49
:105C4000E27F002A7FF480AF897D0022C1EB400013
:105C50002275A0F6010075E7E17F00200029A4F875
:105C600048003FF471AFE077012020756CE700BF7A
:105C7000607D002800F0DA806078002800F0DA808B
:105C8000D5E91613B4F8480000912F2140F2FF72B5
:105C900040F2FF76FEF782FF48F20071C0F29331C6
:105CA000AA7A91FBF0F05108B4F8482090FBF1F08B
:105CB0002E2AA08700F2168140F268010020C2F26D
:105CC0000001086040F23851C2F20001A4F84E0011
:105CD000086094F82400002800F0B48036E700BF84
:105CE0001E2840F083801E2090E000BFBA7FA37A78
:105CF0009A4240F0F781B7F856003B8F0026984251
:105D0000B4F852304FF000009BB288BF0120C82B7E
:105D10004FF0000338BF0123184240F0CF8194F8C0
:105D20002400002840F0CA814FF47A70A4F8500093
:105D3000D8E100BFE27F002A7FF406AF897D002210
:105D4000C1EB400022753138FCE600BFE27F7AB932
:105D50000022227540F2FF764FF4FA622F2300965C
:105D6000FEF71CFF397CA4F84800B4F850004B0043
:105D7000C3F57A72824225D9A17ABE7FC1F10105AD
:105D8000B5420BD1257D4FF0000C0126A4F848C088
:105D9000E677BDB1B97784F81FC001E0E17F89B92A
:105DA00000212F2640F2FF7321750096FEF7F6FEC4
:105DB000397CA4F84800B4F850004FF47A724B00D4
:105DC000A2EB4102824200F2EE8103F57A71814238
:105DD000C0F0E981E17F00200029A4F8480000F02C
:105DE000E281E07701202075DDE100BFE97B01EB76
:105DF00081018A00824209D9A0271E212F23009702
:105E0000FEF7CCFE0146B4F84800EDE6E97B01EB75
:105E100081018900814210D840F2FF7740F2FF7281
:105E2000A0230097FEF7BAFE05E000BFB4F84800D3
:105E300001E000BF3020A4F84E0094F824000028B0
:105E40007FF484AE94F8270000283FF47FAEA17B56
:105E5000B4F84E0001EB81022F2606EB02128242BB
:105E60002BD894F8230078B9FBF740FF687E002810
:105E700008BF00F0A1FA012084F8230084F82F0065
:105E8000688FA17BA4F84400B4F84E00B5F8403008
:105E900021B128334FF4FA67892102E04FF4FA6701
:105EA0002F2140F2FF720097FEF778FEE17CA4F804
:105EB0004600002904BF0020E077A07BB4F84E1014
:105EC00000EB800006EB001088426BD9E07E0528CD
:105ED00030D8DFE800F031032D252903FEF7F0FF6D
:105EE00028E000BF40F23850C2F20000006841F2E2
:105EF0005971CDF2B711A0FB0101C1F34F30302829
:105F00004FF4784298BF302012EA513F08BF06464E
:105F1000A4F84E6094F8240000283FF493AF15E6EF
:105F2000FEF770FE06E000BFFFF73CF802E000BF9E
:105F3000FEF792FF0020E0762879002854D094F8EC
:105F40002300002800F0908095F82200A98DC0EB76
:105F5000001001EB8000A0F13C010AB2B2F5B47F61
:105F6000A8BFA0F5D27101F1770002B2A4F86210C7
:105F7000B2F5B47FA8BFA1F1F100A4F8640001F16B
:105F8000EF0002B2B2F5B47FA27BA8BFA1F1790005
:105F9000012AA4F8660004BF012084F82400002030
:105FA000A4F84600E07F00287FF4D0ADB4F84E009E
:105FB0002E282FD940F23851C2F20001CA69617B04
:105FC0001423CB40B4F846109A4225D26A8F9142EE
:105FD0003CBFA4F846201146EA8F914284BFA4F842
:105FE0004620114618E000BF94F823100020002935
:105FF000A4F8460040F06D8101216976217B40F2D2
:106000003852C2F200020029D06100F05D81FDF734
:1060100039FA5EE1B4F84610B5F84820914284BFE1
:10602000A4F846201146A27D32B1B5F9362091423E
:10603000C4BF91B2A4F846103028FFF487AD40F2F7
:106040003850C2F20000406800283FF47FAD41F2B2
:106050005972CDF2B712A0FB020201EB5230A4F844
:10606000460001B0F0BD00BF0120227B687640F2FF
:106070003850C2F200000021002AC16184F82610C5
:1060800000F01E81A07B00287FF45EAF28780028F6
:1060900000F0528194F830004A2800F24D8194F8C3
:1060A0002F00002800F04881687842F63441C4F29D
:1060B0000101C1E90000886046E700BFC2F10100AC
:1060C000B87740F23850C2F20000C66101207876FD
:1060D000FEF78CFD397CB4F850004FF47A72A67646
:1060E00002EB410140F2FF764FF4FA622F23009653
:1060F000FEF754FD397CA4F84800B4F850004B007A
:10610000C3F57A7282427FF696ADA17ABB7FC1F168
:1061100001069E422CD1B7F856003B8F00269842CC
:10612000B4F852304FF000009BB288BF0120C82B5A
:106130004FF0000338BF0123184207D194F8240020
:1061400020B94FF47A70A4F8500011E040F23850B2
:10615000C2F20000C66101207876B977FEF746FDED
:10616000397CB4F850004FF47A72A676A2EB410263
:106170002F26002140F2FF730096FEF70FFD397CB9
:10618000A4F84800B4F850004FF47A724B00A2EB28
:106190004102824207D803F57A71814222BF002072
:1061A000A4F84800A07694F8290000283FF4CCAC6D
:1061B000E17CB4F8500000297FF4AAACB0F5836FFD
:1061C00038D340F20005C2F20005A97FA27A9142BD
:1061D00029D1B5F856002A8F00269042B4F85220F3
:1061E0004FF0000092B288BF0120C82A4FF0000291
:1061F00038BF0122104207D194F8240020B90020B2
:10620000A4F850000FE000BFC1F10100A87740F2F0
:106210003850C2F20000C66101206876FEF7E6FC45
:10622000B4F85000A676A97DC1EB4001A1F60101AA
:10623000A4F84810A0F1300189B2C9087C2936D8E9
:1062400040F20005C2F20005A17AAA7FC1F1010364
:10625000934226D1B5F856002A8F00269042B4F812
:1062600052204FF0000092B288BF0120C82A4FF0A0
:10627000000238BF0122104206D194F8240018B958
:106280000020A4F850000CE040F23850C2F20000A8
:10629000C66101206876A977FEF7A8FCB4F8500023
:1062A000A676A97DC1EB40013139A4F848102F280A
:1062B0003FF64AAC0020A4F84800A076FFF744BCA3
:1062C000FBF714FD40E600BFE07F002808BFFBF7A6
:1062D0000DFDE17CE07F002918BF00283FF463AE8C
:1062E00094F82900B4F8501060B94FF47A70FDF7B3
:1062F00019F994F8291000F57A70A4F8600049B3F0
:10630000B4F85010A1F1300080B2C0087C2807D842
:10631000A87DC0EB41003138A4F860001AE000BF4E
:10632000B1F5836F14D3A87DC0EB4100A0F6010046
:10633000A4F860000EE000BF287B40F2BC7101EBC6
:106340004000A4F86000FEF7CDFE0120E077FBE5F9
:10635000B4F8600080B240F2CF71884202D3FDF7FA
:1063600091F81FE6FEF7BEFE1CE6000040F200407A
:10637000C4F60000022101221023FDF731B900000C
:1063800042F63441C4F201010860704742F63841D8
:10639000C4F201010860704742F63C41C4F20101B9
:1063A000086070470B2828BF0B2040F27C5140004A
:1063B000C2F2000108707047B0B540F2BC44C2F2AE
:1063C000000494F8230018B1BDE8B040FCF71CBEEF
:1063D00040F20005C2F20005A97F95F822000129CC
:1063E0000CD10130C1B2072985F8220022BF01205B
:1063F00085F82200207700F001000CE0013801064A
:1064000085F8220004D10620012185F82200217799
:10641000012121EA00006877EFF3108072B6E07F77
:1064200018B995F82200FBF74FFD62B6FBF702FDA5
:1064300040F23850C2F20000016940F6C5129142A4
:1064400024BF01216976002184F82E1084F82B10D6
:1064500095F82210B5F8562000EB4100C28442F2B4
:106460001070A5F8560041F22400C4F2000041F279
:1064700088310160012084F82300BDE8B040FCF7BA
:10648000C3BD0000F0B587B00E20C0F21800012196
:10649000FCF7A0FA1220C0F214000121FCF79AFACE
:1064A0004FF4A0100121FCF795FA40F20010C0F261
:1064B000021040F2004406904020C4F6000405900B
:1064C00005A92046FDF742F82046062100220027B4
:1064D000FDF79AF81C25C4F202052846FCF774FD66
:1064E0006E463046FCF722FD40F2E800C2F20000A2
:1064F000007843F60004ADF80A001020ADF808005B
:1065000040F27250C2F20000C4F201040190201D5A
:1065100000904FF48070039028463146ADF810701B
:10652000FCF714FD20464FF4E1310022002300F077
:106530000DFD2046012100F071FD2046012100F0F3
:1065400059FD2046012100F05FFD2046012100F0A9
:10655000DFFC2046012100F0E5FC07B0F0BD0000A3
:106560002DE9F04381B040F2BC44C2F20004B4F81B
:106570004600B4F84010A4F85200481C218FA4F83B
:106580004000481C618F2087481CA18E6087481CF2
:1065900094F8271040F200090029C2F20009A086F1
:1065A00053D1607E002850D194F8280000284CD0A8
:1065B000B4F8480020B10020A4F8680045E000BF0E
:1065C000B4F8680044F62162013081B29142A4F827
:1065D00068003AD3B4F84C001F2827D3A07C0121CF
:1065E000012884F8271025D1B4F86A0040F28951B7
:1065F0004143B9F83420C90C61765143B0F5B97FF5
:10660000A9F8241018D343F200080025C4F20008AA
:106610004AF6AA27FEF788FC6420FCF719FBC8F8A5
:106620000070607E01358542F4D305E0002084F8D7
:106630002800C1E7FEF778FC94F8290094F82A10A6
:10664000C0B2084304BF0020E074E07B88B1B4F816
:106650006C0099F80710013082B201EB8101B2EBB6
:10666000810FA4F86C0004D90120A0770020A4F8C1
:106670006C0094F824002178C0B2084340F0CD812A
:1066800099F8190000284CD094F82300002848D02D
:10669000FEF7ACFAFCF74AFF99F81D1081B180B102
:1066A00094F8260099F81F200130C3B2934284F871
:1066B000260019D894F82B0098BB94F82E001AE005
:1066C00040B194F82E00013094F82B2084F82E006D
:1066D0003ABB0FE094F8260099F81F200130C3B2AE
:1066E000934284F826000DD9002094F82B2084F8DA
:1066F0002E00B2B959B199F82010C0B288420BD817
:106700000FE000BF94F82B0058B994F82E0099F8C8
:106710002110C0B2884204D9012084F82B0000F077
:1067200087FC608F1528C0F09880A27D94F823C064
:106730000021002A618718BFBCF1000F47D0B4F9CF
:106740004210B9F828206FF0630302FB031240F2F5
:106750006801C2F200018F6BD1E90B63D1F834E01C
:1067600003FB02738F6CBB42A8BF3B46086C7F42A1
:10677000101ABB42D8BF3B4600FB0E3700FB0EF0A1
:1067800006FB0277CE6CB742A8BF37467642B742C7
:10679000D8BF374641F25976CDF2B716C1E90F029C
:1067A000B9F83600A7FB06658A628B634F64A0EBDD
:1067B0005530B9F8401002B28A42B8BF0846B9F85D
:1067C000441002B28A42C8BF0846A9F83600607B6E
:1067D000002818BFBCF1000F39D0B9F85600B9F83D
:1067E0002A10421A40F26801C2F200010B6ED1E990
:1067F00015700A6500FB02300B6FCE6D9842A8BF82
:1068000018465B429842D8BF18468B6E0866D31A6A
:1068100003FB060003FB06F507FB02004B6F4D660A
:106820008A669842A8BF18465A429042D8BF10467E
:1068300040F23852C2F200025368C8664EF260312C
:106840001844C0F21601884238BF01465160607D8D
:10685000002818BFBCF1000F14D199F811000028CE
:106860007BD0A08EE18E884208D9B4F84400002184
:106870009528A1864CD8022154E000BFB4F844000A
:1068800000214FE040F2385CC2F2000CDCE907E185
:10689000A78FDCF80080CD1B40F26801C2F2000136
:1068A0000E69D1E901070D6007FB05670E6ACA682A
:1068B000B742A8BF37467642B742D8BF37468E693F
:1068C0000F61AE1B06FB02F306FB02724B6100FB7D
:1068D00005204A6A8D619042A8BF104652429042FC
:1068E000D8BF104645F6F002C8614044C0F23812E5
:1068F000904238BF0246BEF1630FCCF800209CBF27
:106900000020086199F811000028AAD125E000BFF5
:1069100040F23851C2F200010969B1F5FA7F94BF23
:1069200028210A21B4F8522089F81710131A8B4233
:106930000ADD0844B9F85610A4F852000020B1F559
:10694000FA7F88BF012006E0821A8A42C4BF401A3B
:10695000A4F85200002089F8180094F8273094F821
:106960002300002B18BF002814D1E17F31B3B4F805
:106970006020B9F8441044F6D357B9F846304A437A
:10698000C1F26207A2FB0727A3EBD712531CB4F88E
:10699000522021E0B4F84E103029E6D3B4F852204A
:1069A000B9F8441044F6D35701FB02F3C1F2620771
:1069B000A3FB0737012303EBD7130DE0B4F85220F4
:1069C000B9F8441044F6D35601FB02F7C1F262064F
:1069D000A7FB0676F7097B43A4F8442042F62C4235
:1069E000C4F20102A4F86E30116094F8306099F896
:1069F0000170F6B299F80010257B9BB24B2E28BF90
:106A00001F46002818BF1F46080608BF1F46002D56
:106A100008BF1F46C2E902771761B4F8560001307B
:106A2000A4F8560001B0BDE8F0830000062988BF35
:106A30007047DFE801F00529151F0B333D0000BF4B
:106A4000016A62F300010162704700BF016A02F04F
:106A5000010221F4807141EA02210162704700BF06
:106A6000016A02F0010221F0100141EA0211016203
:106A7000704700BF016A02F0010221F0400141EAC3
:106A800082110162704700BF016A02F0010221F029
:106A9000040141EA82010162704700BF016A02F00D
:106AA000010221F4806141EA82210162704700BF46
:106AB000016A02F0010221F4805141EA02310162CF
:106AC00070470000062988BF7047DFE801F00529FC
:106AD00017290F29210000BF816902F0010221F06E
